:030000000202C930
:0C02C900787FE4F6D8FD75814002011238
:1001AF0020202048756D3A0020202054656D3A00BC
:1001BF000000000000000000000000000000000030
:1001CF000000000000000000000000000000000020
:0F01DF008F807F057E001201EED2B77F057E0074
:1001EE00D3EF9400EE940040147D727C00ED1D70F0
:0D01FE00011CED4C70F7EF1F70E61E80E352
:01020B0022D0
:0802D500C2B41201DFC2B7221E
:0D02B40075F00A8475F00A84E5F02430FF2F
:0802C100D2B41201DFC2B72222
:10020C008B218A228923AB21AA22A9231200F9600F
:10021C001A0523E5237002052214F91200F9FF12C6
:0C022C0002C17F017E001201EE80DB2287
:10016C0078217C007D007BFF7A0179BF7E007F10B7
:10017C001200D378317C007D007BFF7A0179CF7E31
:10018C00007F101200D3C2B6C2B77F381202D57FDF
:10019C000E1202D57F061202D57F011202D57F8086
:0301AC000202D577
:10026400C2A37F137E001201EED2A3E4FF0FBF0AE4
:10027400FCE4FF0FBF0CFCA2A39200E4FF0FBF0B32
:09028400FCE4FF0FBF18FCA2000E
:01028D00224E
:10028E00E4FF20A3FDE4FE30A3FDEF25E0FFE4FD37
:10029E0030A3030D80FAEDC3940A50028003430786
:0502AE00010EBE08E294
:0102B3002228
:10023800120264402612028E8F0912028E12028E5A
:100248008F0812028E12028EE4FF0FBF11FCD2A398
:0B025800C2967F017E001201EED296DC
:010263002278
:10011200E4F509F5087FE87E031201EE12016C1284
:1001220002387F801202D57BFF7A0179AF12020C6E
:10013200E5091202B4E5091202B87F251202C17F55
:10014200C01202D57BFF7A0179B712020CE50812C0
:1001520002B4E5081202B87FDF1202C17F63120205
:0A016200C17FD07E071201EE80B5C8
:10000300E709F608DFFA8046E709F208DFFA803EDF
:1000130088828C83E709F0A3DFFA8032E309F608CC
:10002300DFFA8078E309F208DFFA807088828C8334
:10003300E309F0A3DFFA806489828A83E0A3F608E8
:10004300DFFA805889828A83E0A3F208DFFA804CC2
:1000530080D280FA80C680D4806980F28033801099
:1000630080A680EA809A80A880DA80E280CA803302
:1000730089828A83ECFAE493A3C8C582C8CCC5837A
:10008300CCF0A3C8C582C8CCC583CCDFE9DEE7804A
:100093000D89828A83E493A3F608DFF9ECFAA9F0C9
:1000A300EDFB2289828A83ECFAE0A3C8C582C8CC1F
:1000B300C583CCF0A3C8C582C8CCC583CCDFEADE38
:1000C300E880DB89828A83E493A3F208DFF980CC9A
:1000D30088F0EF60010E4E60C388F0ED2402B40493
:1000E3000050B9F582EB2402B4040050AF2323453A
:0600F3008223900053730C
:1000F900BB010689828A83E0225002E722BBFE0205
:09010900E32289828A83E4932237
:00000001FF
