:03000000020244B5
:0C024400787FE4F6D8FD75812002028B63
:10043A002020CEC2B6C8B2E2C1BFCAB5D1E900B562
:10044A00B1C7B0CEC2B6C83A00B6C800CBB3CDA8C1
:0B045A00B5E7D7D3B9A4D7F7CAD2008A
:04051100020B0000D9
:0F03E1008F807F017E001203F0D2B77F017E0074
:1003F000D3EF9400EE940040147D727C00ED1D70EC
:0D040000011CED4C70F7EF1F70E61E80E34D
:01040D0022CC
:08050900C2B41203E1C2B722E3
:0E04F3001201E17C007D0A1201E1ED2430FFD0
:08050100D2B41203E1C2B722DB
:10040E008B088A09890AAB08AA09A90A1201C860D1
:10041E001A050AE50A7002050914F91201C8FF123D
:0C042E0005017F057E001203F080DB2238
:1004B500BF01047F808013BF02047F90800CBF03BF
:1004C500047F888005BF04027F98EF2D14FF020585
:0104D500091D
:1002D000C2B6C2B77F011205097F057E001203F086
:1002E0007F301205097F061205097F0C1205097F70
:1002F000881205097D017F011204B57BFF7A04791C
:100300003A12040E7D017F031204B57BFF7A047953
:100310004912040E7D087F031204B57BFF7A04792D
:100320005312040E7D017F041204B57BFF7A047919
:040330005602040E5F
:10048E00D2A0E4FF0FBF02FCC2A0E4FF0FBFC8FC66
:10049E00D2A0E4FF0FBF14FCA2A09200E4FF0FBF96
:0604AE0096FCD2A0A200A2
:0104B4002225
:1004D600E4FEC2A00000EF1392A0E4FD0DBD14FCE3
:0C04E600EFC313FFD2A000000EBE08E61A
:0104F20022E7
:10046500E4FFFEC2A000D2A0E4FD0DBD01FCEFC378
:1004750013FF30A0054307808000D2A00000E4FDF3
:080485000DBD14FC0EBE08DBE6
:01048D00224C
:10033400E4FBFAF508F50912048E40517FCC12044F
:10034400D67F441204D67FE87E031203F012048E93
:1003540040377FCC1204D67FBE1204D60012046547
:10036400AB07120465AA07EFFE7C00E42BFDEC3E0C
:10037400FCE412010EE4FBFA7920783F1200031228
:0D03840001478E088F0912048EAE08AF09E4
:010391002249
:100392001202D07FE87E031203F012048E40FB1299
:1003A20003348E0B8F0C7D067F031204B5AE0BAFA8
:1003B2000C7C007D641204F3AE0BAF0C7C007D0A52
:1003C2001204F37F2E120501AE0BAF0C1204F6C21B
:0F03D200961203ECD2967FD07E071203F080BB09
:10000300EC4D6011E8497017ED33EC3304600DE4F7
:10001300FCFFFEFD22E933E8330470F80201B3125A
:10002300017E58046009E4CC24815006285009025B
:1000330001BD2840030201BAC0E0EB4A7044B98015
:1000430006D0E0FB0201A9EF4E701CBD8008EBFF58
:10005300EAFEE9FD80EBE98DF0A4FEE5F00200EC99
:10006300E9CDF9EAFEEBFFEF89F0A4FCE5F0CE89D8
:10007300F0A42EFFE435F0CD89F0A42DFEE435F095
:100083008067EF4E7005BD80D780C3EF8BF0A4ACC3
:10009300F0EE8BF0A42CFCE435F0F8EF8AF0A42CFE
:1000A300E5F038FCE433CB8DF0A42CFCE5F03BF811
:1000B300EE8AF0A42CFCE5F038F8E433CF89F0A401
:1000C3002CFCE5F038CF3400CE89F0A42FFFE5F007
:1000D3003EFEE433C98DF0A42EFEE5F039CD8AF05F
:1000E300A42FFFE5F03EFEE43DFD33D0E0FB5007D7
:1000F3000BBB000F0201BDEC2CFCEF33FFEE33FE14
:06010300ED33FD02019541
:1001090075F020800E75F010800575F0087D007E71
:10011900007F003392D530D503120236EC334010FC
:10012900EF33FFEE33FEED33FDEC33FCD5F0ED227A
:0E013900E5F0247EA2D513CC92E7CDCEFF22B6
:10014700EDD2E7CD33EC3392D524814006E4FFFEB0
:10015700FDFC22FCE4CFCECDCC24E0501174FF800F
:10016700EDC3CC13CCCD13CDCE13CECF13CF0470AC
:07017700F030D5DE02023674
:10017E00E9D2E7C933E833F892D5EDD2E7CD33ECC7
:07018E0033FC5002B2D52240
:10019500EC30E7100FBF000C0EBE00080DBD0004CB
:1001A5000BEB6014A2D5EB13FCED92E7FD2274FF77
:1001B500FCFDFEFF22E480F8A2D574FF13FC7D80D0
:0301C500E480EFE4
:10025000020392E493A3F8E493A34003F68001F22F
:1002600008DFF48029E493A3F85407240CC8C333AF
:10027000C4540F4420C8834004F456800146F6DF7E
:10028000E4800B0102040810204080900511E47EF8
:10029000019360BCA3FF543F30E509541FFEE49373
:1002A000A360010ECF54C025E060A840B8E493A33A
:1002B000FAE493A3F8E493A3C8C582C8CAC583CA65
:1002C000F0A3C8C582C8CAC583CADFE9DEE780BE1D
:0105150000E5
:1001C800BB010689828A83E0225002E722BBFE0235
:0901D800E32289828A83E4932268
:1001E100BC000BBE0029EF8DF084FFADF022E4CC02
:1001F100F875F008EF2FFFEE33FEEC33FCEE9DECCB
:10020100984005FCEE9DFE0FD5F0E9E4CEFD22ED10
:10021100F8F5F0EE8420D21CFEADF075F008EF2F5A
:10022100FFED33FD4007985006D5F0F222C398FD4B
:050231000FD5F0EA22E8
:0E023600C3E49FFFE49EFEE49DFDE49CFC22D9
:00000001FF
