:1007580020202054656D3A0044697374616E6365A6
:010768000090
:040769000213000077
:0F0687008F807F057E00120696D2B77F057E001A
:10069600D3EF9400EE940040147D727C00ED1D7043
:0D06A600011CED4C70F7EF1F70E61E80E3A5
:0106B3002224
:08000300C2B4120687C2B72245
:10073E007C007D641203967C007D0A120396ED24E4
:02074E0030FF7A
:08075000D2B4120687C2B722E1
:0B0650007FC01200037BFF7A07796077
:10065B008B0E8A0F8910AB0EAA0FA91012036B60B9
:10066B001A0510E5107002050F14F912036BFF1237
:0C067B0007507F017E0012069680DB22F3
:10070400C2B6C2B77F381200037F0E1200037F0601
:0D0714001200037F011200037F800200032A
:1006DD00D2A0E4FF0FBF02FCC2A0E4FF0FBFC8FC15
:1006ED00D2A0E4FF0FBF14FCA2A09201E4FF0FBF44
:0606FD0096FCD2A0A20150
:0107030022D3
:10072100E4FEC2A00000EF1392A0E4FD0DBD14FC95
:0C073100EFC313FFD2A000000EBE08E6CC
:01073D002299
:1006B400E4FFFEC2A000D2A0E4FD0DBD01FCEFC327
:1006C40013FF30A0054307808000D2A00000E4FDA2
:0806D4000DBD14FC0EBE08DB95
:0106DC0022FB
:1005FA00E4FBFA1206DD404D7FCC1207217F44123C
:10060A0007217FE87E031206961206DD40377FCC6B
:10061A001207217FBE120721001206B4AB07120689
:10062A00B4AA07EFFE7C00E42BFDEC3EFCE41202C8
:10063A00B1E4FBFA7920783F1201061202EA8E131E
:05064A008F141206DD13
:01064F002288
:1003F900C2A1D2AFD2ABD2A9758901E4F58CF58A35
:10040900F50CF50DC28CF513F5141207047FE87E7F
:10041900031206961206DD40441205FA7F80120087
:10042900037BFF7A07795812065BAE13AF141207E4
:100439003EAE13AF147C007D0A1207427F2E1207CD
:1004490050AE13AF141207457FDF1207507F4312D6
:100459000750C2967F017E00120696D296D2A1005D
:1004690000000000000000000000C2A130A2FDD27F
:100479008C20A2FDC28CAF8CEFFEAD8A7C00E42DEE
:10048900FFEC3EFEE48F0B8E0AF509F508AE13AFBB
:10049900147D3D1203847D0A1203967C007D64124B
:1004A9000396AC06AD07E41202B17B9A7AB979A535
:1004B9007843120015C004C005C006C007AF0BAED3
:1004C9000AAD09AC08E41202ACD003D002D001D0C5
:1004D90000120106E4FBFA7948784312020FE4FBA3
:1004E900FA7920784112020F1202EA8E0C8F0DD38D
:1004F900E50D9470E50C9417500330002312065053
:100509007F3A1207507F2D1207507F2E1207507F16
:100519002D1207507F2D1207507F2D12075080365C
:100529001206507F3A120750AE0CAF0D7C037DE8DE
:100539001207427F2E120750AE0CAF0D12073EAEC6
:100549000CAF0D7C007D0A120742AE0CAF0D1207ED
:10055900457F6D120750E4F58CF58A7FD07E07122E
:05056900069602041DCE
:03000B0002076E7B
:03076E00D2003284
:10000E00020356E86480F8E933E83360110460F0C7
:10001E00ED33EC337009E8FCE9FDEAFEEBFF220458
:10002E0060DED3EB9FEA9EE99DE8C2E78CF0C2F753
:10003E0095F0400CE8CCF8E9CDF9EACEFAEBCFFB1F
:10004E0012032185D0F05804700320D5B3E8047054
:10005E00075002B2D502036092D5EC0460F7E4CCEF
:10006E00C0E0C398F8603B94186008400DD0E0FBE8
:10007E00020338E4FBFAC9FC8028E830E406E4C940
:10008E00FBE4CAFCE830E305E4C9CACBFCE854073C
:10009E006010F8C3E913F9EA13FAEB13FBEC13FC47
:1000AE00D8F130F52FC3E49CFCEF9BFFEE9AFEEDEA
:1000BE0099FDD0E0FBEF4E4D4C701222DB03020394
:1000CE005DEC2CFCEF33FFEE33FEED33FDED30E750
:1000DE00EB020338EF2BFFEE3AFEED39FDD0E0FBDD
:1000EE0050130BBB0003020360ED13FDEE13FEEF86
:0800FE0013FFEC13FC020338B0
:10010600EC4D6011E8497017ED33EC3304600DE4F3
:10011600FCFFFEFD22E933E8330470F802035612B1
:10012600032158046009E4CC2481500628500902B2
:10013600036028400302035DC0E0EB4A7044B980C7
:1001460006D0E0FB02034CEF4E701CBD8008EBFFAF
:10015600EAFEE9FD80EBE98DF0A4FEE5F00201EF91
:10016600E9CDF9EAFEEBFFEF89F0A4FCE5F0CE89D4
:10017600F0A42EFFE435F0CD89F0A42DFEE435F091
:100186008067EF4E7005BD80D780C3EF8BF0A4ACBF
:10019600F0EE8BF0A42CFCE435F0F8EF8AF0A42CFA
:1001A600E5F038FCE433CB8DF0A42CFCE5F03BF80D
:1001B600EE8AF0A42CFCE5F038F8E433CF89F0A4FD
:1001C6002CFCE5F038CF3400CE89F0A42FFFE5F003
:1001D6003EFEE433C98DF0A42EFEE5F039CD8AF05B
:1001E600A42FFFE5F03EFEE43DFD33D0E0FB5007D3
:1001F6000BBB000F020360EC2CFCEF33FFEE33FE6B
:06020600ED33FD02033898
:10020C00020360EC5D046005E859047003020356B8
:10021C00120321580460F6EC4860F2EC7004FDFE09
:10022C00FF22C860DB2481C85009C39860025006C5
:10023C0002035D9850CAF582E9294B4A7005AB82DE
:10024C0002034C75F0007C1A7880C3EF9BEE9AED9C
:10025C0099400DC3EF9BFFEE9AFEED99FDE842F03D
:10026C00DC23ACF0D0E0FFD0E0FED0E0FDAB822090
:10027C00E7101BEB60BAEC2CFCEF33FFEE33FEED1A
:10028C0033FD020338E803F830E705C0F075F000E1
:10029C00EF2FFFEE33FEED33FD40B830E7C280AAFE
:1002AC0075F020800E75F010800575F0087D007ECD
:1002BC00007F003392D530D5031203EBEC334010A2
:1002CC00EF33FFEE33FEED33FDEC33FCD5F0ED22D6
:0E02DC00E5F0247EA2D513CC92E7CDCEFF2212
:1002EA00EDD2E7CD33EC3392D524814006E4FFFE0C
:1002FA00FDFC22FCE4CFCECDCC24E0501174FF806B
:10030A00EDC3CC13CCCD13CDCE13CECF13CF047007
:07031A00F030D5DE0203EB19
:10032100E9D2E7C933E833F892D5EDD2E7CD33EC22
:0703310033FC5002B2D5229B
:10033800EC30E7100FBF000C0EBE00080DBD000426
:100348000BEB6014A2D5EB13FCED92E7FD2274FFD2
:10035800FCFDFEFF22E480F8A2D574FF13FC7D802B
:03036800E480EF3F
:0300000002056E88
:0C056E00787FE4F6D8FD7581200205B509
:10036B00BB010689828A83E0225002E722BBFE0290
:09037B00E32289828A83E49322C3
:10038400EF8DF0A4A8F0CF8CF0A428CE8DF0A42E8D
:02039400FE2247
:10039600BC000BBE0029EF8DF084FFADF022E4CC4B
:1003A600F875F008EF2FFFEE33FEEC33FCEE9DEC14
:1003B600984005FCEE9DFE0FD5F0E9E4CEFD22ED5A
:1003C600F8F5F0EE8420D21CFEADF075F008EF2FA4
:1003D600FFED33FD4007985006D5F0F222C398FD95
:0503E6000FD5F0EA2232
:0E03EB00C3E49FFFE49EFEE49DFDE49CFC2223
:10057A000203F9E493A3F8E493A34003F68001F29B
:10058A0008DFF48029E493A3F85407240CC8C33382
:10059A00C4540F4420C8834004F456800146F6DF51
:1005AA00E4800B0102040810204080900769E47E71
:1005BA00019360BCA3FF543F30E509541FFEE49346
:1005CA00A360010ECF54C025E060A840B8E493A30D
:1005DA00FAE493A3F8E493A3C8C582C8CAC583CA38
:1005EA00F0A3C8C582C8CAC583CADFE9DEE780BEF0
:01076D00008B
:00000001FF
