:03000000020405F2
:0C040500787FE4F6D8FD75813D02044CC0
:1006ED0074656D706572617475726500000000004F
:1006FD0000000000000000000000000000000000ED
:10077600050D35431010030508354310100302120A
:02078600000071
:0F0621008F807F057E00120630D2B77F057E00E6
:10063000D3EF9400EE940040147D727C00ED1D70A9
:0D064000011CED4C70F7EF1F70E61E80E30B
:01064D00228A
:0807B200C2B4120621C2B722F5
:0E0760001202F97C007D0A1202F9ED2430FF2E
:08076E00D2B4120621C2B72229
:10064E008B368A378938AB36AA37A9381202BE6084
:10065E001A0538E5387002053714F91202BEFF127A
:0C066E00076E7F017E0012063080DB2248
:10070D00C2B6C2B77F381207B27F0E1207B27F068C
:0D071D001207B27F011207B27F800207B2FF
:1006A300D2A0E4FF0FBF02FCC2A0E4FF0FBFC8FC4F
:1006B300D2A0E4FF0FBF14FCA2A09208E4FF0FBF77
:0606C30096FCD2A0A20883
:0106C900220E
:10072A00E4FEC2A00000EF1392A0E4FD0DBD14FC8C
:0C073A00EFC313FFD2A000000EBE08E6C3
:010746002290
:10067A00E4FFFEC2A000D2A0E4FD0DBD01FCEFC361
:10068A0013FF30A0054307808000D2A00000E4FDDC
:08069A000DBD14FC0EBE08DBCF
:0106A2002235
:10049100E4FBFA1206A3404D7FCC12072A7F4412D7
:1004A100072A7FE87E031206301206A340377FCC6D
:1004B10012072A7FBE12072A0012067AAB0712061C
:1004C1007AAA07EFFE7C00E42BFDEC3EFCE412016E
:1004D1000EE4FBFA7920783F1200031201478E12D5
:0504E1008F131206A3B9
:0104E60022F3
:1006CA00E4FDFCC3ED9FEC9E50070DBD00010C80BC
:1006DA00F2E4FCFDC3ED9FEC9E50070DBD00010C3A
:0206EA0080F29C
:0106EC0022EB
:0B07A700EFD394004004001F80F622F6
:100534007F641207A7C290D291C2927B007A00799D
:100544000D753D057F301205BE7B007A0079087574
:100554003D057F2B1205BE7D037F211207897D0394
:100564007F22120789E4FD7F251207897D147F32DB
:0A0574001207897D077F2602078920
:10074700E4FEEF339293EF25E0FFD292A294E433D5
:080757004207C2920EBE08EA3F
:01075F002277
:0C079A00C291120747E4FF120747D291FA
:0107A6002230
:10078900C291120747AC07AF05120747D291AF04D0
:01079900223D
:0605F0008B158A16891725
:1005F600C291120747AD07E4FCECC395185017E407
:10060600FF120747AB15AA16A9178C82758300EF50
:0A0616001202D70C80E3D291AF0569
:0106200022B7
:0605BE008B3A8A3B893CE8
:1005C400C291120747AD07E4FCECC3953D5018AB4C
:1005D4003A053CE53CAA3B7002053B14F91202BE05
:0B05E400FF1207470C80E2D291AF0528
:0105EF0022E9
:0604E7008B198A1A891B23
:1004ED00E4F51CFB7A007908753D057F2A1205BEDF
:1004FD00C2907D1F7F20120789D2907F821207A79D
:10050D007F0712079A8F20300613C290AB19AA1AD3
:10051D00A91B7518147F611205F0751C01AD207FA4
:06052D0027120789AF1C34
:0105330022A5
:10057E008B368A378938C2907B007A00790D753DAB
:10058E00057F301205BE7B007A00790D753D057F23
:10059E002A1205BEAB36AA37A938753D147FA012B4
:1005AE0005BE7D1E7F20120789D2907F140207A7F9
:10035C0078227C007D007BFF7A0679F97E007F1481
:10036C00120298E4F512F51312070D1205347FE80A
:10037C007E031206301206A340591204917F80129C
:10038C0007B27BFF7A0679ED12064E7F3A12076EA2
:10039C007FC41207B2AE12AF137C007D64120760EB
:1003AC00AE12AF137C007D0A1207607F2E12076E0F
:1003BC00AE12AF131207637FDF12076E7F63120753
:1003CC006EE512F523851324C2967F017E0012067A
:1003DC0030D2967B007A00792212057EE4F523F563
:1003EC00247FE87E031206307F0712079A8F20AD18
:0903FC00207F271207890203810A
:10000300EC4D6011E8497017ED33EC3304600DE4F7
:10001300FCFFFEFD22E933E8330470F80201B3125A
:10002300017E58046009E4CC24815006285009025B
:1000330001BD2840030201BAC0E0EB4A7044B98015
:1000430006D0E0FB0201A9EF4E701CBD8008EBFF58
:10005300EAFEE9FD80EBE98DF0A4FEE5F00200EC99
:10006300E9CDF9EAFEEBFFEF89F0A4FCE5F0CE89D8
:10007300F0A42EFFE435F0CD89F0A42DFEE435F095
:100083008067EF4E7005BD80D780C3EF8BF0A4ACC3
:10009300F0EE8BF0A42CFCE435F0F8EF8AF0A42CFE
:1000A300E5F038FCE433CB8DF0A42CFCE5F03BF811
:1000B300EE8AF0A42CFCE5F038F8E433CF89F0A401
:1000C3002CFCE5F038CF3400CE89F0A42FFFE5F007
:1000D3003EFEE433C98DF0A42EFEE5F039CD8AF05F
:1000E300A42FFFE5F03EFEE43DFD33D0E0FB5007D7
:1000F3000BBB000F0201BDEC2CFCEF33FFEE33FE14
:06010300ED33FD02019541
:1001090075F020800E75F010800575F0087D007E71
:10011900007F003392D530D50312034EEC334010E3
:10012900EF33FFEE33FEED33FDEC33FCD5F0ED227A
:0E013900E5F0247EA2D513CC92E7CDCEFF22B6
:10014700EDD2E7CD33EC3392D524814006E4FFFEB0
:10015700FDFC22FCE4CFCECDCC24E0501174FF800F
:10016700EDC3CC13CCCD13CDCE13CECF13CF0470AC
:07017700F030D5DE02034E5B
:10017E00E9D2E7C933E833F892D5EDD2E7CD33ECC7
:07018E0033FC5002B2D52240
:10019500EC30E7100FBF000C0EBE00080DBD0004CB
:1001A5000BEB6014A2D5EB13FCED92E7FD2274FF77
:1001B500FCFDFEFF22E480F8A2D574FF13FC7D80D0
:0301C500E480EFE4
:1004110002035CE493A3F8E493A34003F68001F2A2
:1004210008DFF48029E493A3F85407240CC8C333EC
:10043100C4540F4420C8834004F456800146F6DFBB
:10044100E4800B0102040810204080900776E47ECE
:10045100019360BCA3FF543F30E509541FFEE493B0
:10046100A360010ECF54C025E060A840B8E493A377
:10047100FAE493A3F8E493A3C8C582C8CAC583CAA2
:10048100F0A3C8C582C8CAC583CADFE9DEE780BE5A
:010788000070
:1001C800E709F608DFFA8046E709F208DFFA803E19
:1001D80088828C83E709F0A3DFFA8032E309F60806
:1001E800DFFA8078E309F208DFFA807088828C836E
:1001F800E309F0A3DFFA806489828A83E0A3F60822
:10020800DFFA805889828A83E0A3F208DFFA804CFB
:1002180080D280FA80C680D4806980F280338010D2
:1002280080A680EA809A80A880DA80E280CA80333B
:1002380089828A83ECFAE493A3C8C582C8CCC583B3
:10024800CCF0A3C8C582C8CCC583CCDFE9DEE78083
:100258000D89828A83E493A3F608DFF9ECFAA9F002
:10026800EDFB2289828A83ECFAE0A3C8C582C8CC58
:10027800C583CCF0A3C8C582C8CCC583CCDFEADE71
:10028800E880DB89828A83E493A3F208DFF980CCD3
:1002980088F0EF60010E4E60C388F0ED2402B404CC
:1002A8000050B9F582EB2402B4040050AF23234573
:0602B8008223900218737E
:1002BE00BB010689828A83E0225002E722BBFE023E
:0902CE00E32289828A83E4932271
:1002D700F8BB010DE58229F582E5833AF583E8F05D
:1002E700225006E92582C8F622BBFE05E92582C809
:0202F700F222F1
:1002F900BC000BBE0029EF8DF084FFADF022E4CCE9
:10030900F875F008EF2FFFEE33FEEC33FCEE9DECB1
:10031900984005FCEE9DFE0FD5F0E9E4CEFD22EDF7
:10032900F8F5F0EE8420D21CFEADF075F008EF2F41
:10033900FFED33FD4007985006D5F0F222C398FD32
:050349000FD5F0EA22CF
:0E034E00C3E49FFFE49EFEE49DFDE49CFC22C0
:00000001FF
