:1002A8007509C3750A50E4F50BF508AE09AF0AFCE9
:1002B800FDAA06AB07C39BFFE49AFE74019400FDF8
:1002C800E49400FCE4FB7A01F9F81203148F8CAE75
:1002D80009AF0AE4FCFDAA06AB07C39BFFE49AFE3C
:1002E80074019400FDE49400FCE4FB7A01F9F8122F
:1002F8000314AF038F8A758D3C758BB0C2967589D0
:0C03080011D2AFD2A9D28CD2ABD28E227F
:050003001202A880FEBE
:03000B0002001ED2
:10001E00C0E0C0F0C083C082C0D075D000C000C0A8
:10002E0001C002C003C004C005C006C007AE09AFC0
:10003E000AE4FCFDAA06AB07C39BFFE49AFE74011B
:10004E009400FDE49400FCE4FB7A01F9F812031429
:10005E008F8CAE09AF0AE4FCFDAA06AB07C39BFF6B
:10006E00E49AFE74019400FDE49400FCE4FB7A0132
:10007E00F9F8120314AF038F8A050BE508C3943CFD
:10008E005010E50BB4140B750B007509C3750A50AF
:10009E00B296743CD3950850047F0180027F00C352
:1000AE00EF648094F85010E50BB4020B750B0075DD
:1000BE0009C3750A50B296740CD3950850047F018B
:1000CE0080027F00C3EF648094925010E50BB4025F
:1000DE000B750B00750927750A10B29674B4D3957B
:1000EE000850067E007F0180047E007F00C3EF94DF
:1000FE00F0EE648094805010E50BB4020B750B008B
:10010E00750913750A88B2967418D3950850047F32
:10011E000180027F00C3EF6480949E5010E50BB403
:10012E00020B750B00750909750AC4B296AF087EED
:10013E0000D3742C9F7480F864019850067C007D67
:10014E000180047C007D00C3ED9468EC6480948192
:10015E005010E50BB4020B750B00750904750AE21D
:10016E00B296D374689FEE6480F8740164809850E0
:10017E00067C007D0180047C007D00C3ED94A4EC20
:10018E00648094815010E50BB4020B750B00750959
:10019E0002750A71B296C3EF94A4EE648094814006
:1001AE0010E50BB4020B750B00750901750AF4B25C
:1001BE0096D007D006D005D004D003D002D001D0FF
:0C01CE0000D0D0D082D083D0F0D0E0323E
:03001B0002035885
:10035800C0D075D000C006C007758D3C758BB00540
:1003680008AF087E00BE0106BFE003750800D0078D
:05037800D006D0D032D8
:0300000002000EED
:0C000E00787FE4F6D8FD75810B0200033A
:10031400C2D5E830E70FB2D5E4C39BFBE49AFAE414
:1003240099F9E498F8EC30E717B2D512034A1202AF
:1003340016E4C39BFBE49AFAE499F9E498F8800381
:1003440012021630D50DE4C39FFFE49EFEE49DFD2A
:04035400E49CFC2207
:1001DA0075F008758200EF2FFFEE33FECD33CDCCDC
:1001EA0033CCC58233C5829BED9AEC99E58298405F
:1001FA000CF582EE9BFEED9AFDEC99FC0FD5F0D63C
:10020A00E4CEFBE4CDFAE4CCF9A88222B800C1B965
:10021A000059BA002DEC8BF084CFCECDFCE5F0CBA3
:10022A00F97818EF2FFFEE33FEED33FDEC33FCEBDC
:10023A0033FB10D703994004EB99FB0FD8E5E4F997
:10024A00FA227818EF2FFFEE33FEED33FDEC33FC84
:10025A00C933C910D7059BE99A4007EC9BFCE99A78
:10026A00F90FD8E0E4C9FAE4CCFB2275F010EF2FBD
:10027A00FFEE33FEED33FDCC33CCC833C810D707BD
:10028A009BEC9AE899400AED9BFDEC9AFCE899F8F8
:0E029A000FD5F0DAE4CDFBE4CCFAE4C8F9228B
:00000001FF
