:1000A90049204C494B4520204D43552000515120B2
:0C00B9003234303639313135322020002D
:0F005F008F807F057E0012006ED2B77F057E0076
:10006E00D3EF9400EE940040147D6E7C00ED1D7075
:0D007E00011CED4C70F7EF1F70E61E80E3D3
:01008B002252
:0800D100C2B412005FC2B722A5
:0800D900D2B412005FC2B7228D
:10008C00C2B6C2B77F381200D17F0E1200D17F06E4
:0D009C001200D17F011200D17F900200D12F
:1000030012008CE4F508E5089000A993FF1200D9CB
:100013007F147E0012006E0508E508C3940B40E6CA
:100023007FD31200D1E4F508E5089000B693FF12E0
:1000330000D97F147E0012006E0508E508C3940DF5
:1000430040E6E4F5087F181200D17F147E00120009
:0C0053006E0508E508C3941040EB80FE29
:030000000200C536
:0C00C500787FE4F6D8FD75810802000386
:00000001FF
