:100165000A11042F480A2312100F00020110E8019A
:060175001B00021C00004B
:0200030021904A
:0D019000C0E0051DE51D7002051CD0E03229
:02000B0021468C
:10014600C0E0C0D075D008758AF0758CD8AF101590
:0F01560010EF70067510BC751B01D0D0D0E032D1
:10000D00317CE51B60FCE4F51BC3E51C648094802A
:10001D004003851190D3E51D9414E51C64809480F4
:10002D004003851290D3E51D9428E51C64809480CF
:10003D004003851390D3E51D9450E51C6480948096
:10004D004003851490D3E51D9464E51C6480948071
:10005D004003851590D3E51D9478E51C648094804C
:10006D004003851690D3E51D948CE51C6480948027
:10007D004003851790D3E51D94B4E51C64809480EE
:10008D004003851890D3E51D94B4E51C64809480DD
:10009D004003851990D3E51D9418E51C6480948167
:0D00AD004004D297C2B3E4F51CF51D010F0D
:10017C00D288D2A8758901758AF0758CD8D28CD2A8
:04018C00A9D2AF2223
:030000000200BA41
:0C00BA00787FE4F6D8FD75811F0201017B
:1000C60002000DE493A3F8E493A34003F68001F243
:1000D60008DFF48029E493A3F85407240CC8C3333B
:1000E600C4540F4420C8834004F456800146F6DF0A
:1000F600E4800B0102040810204080900165E47E34
:10010600019360BCA3FF543F30E509541FFEE493FE
:10011600A360010ECF54C025E060A840B8E493A3C5
:10012600FAE493A3F8E493A3C8C582C8CAC583CAF0
:10013600F0A3C8C582C8CAC583CADFE9DEE780BEA8
:01017B000083
:00000001FF
