:03000000020BF6FA
:0C0BF600787FE4F6D8FD75813D020C3DCF
:100ED300312374656D70657261747572650000000D
:100EE30000000000000000000000000000000000FF
:020EF3000000FD
:100F6400050D354310100305083543101003021214
:020F740000007B
:0F0E07008F807F057E00120E16D2B77F057E000A
:100E1600D3EF9400EE940040147D727C00ED1D70BB
:0D0E2600011CED4C70F7EF1F70E61E80E31D
:010E3300229C
:080FA000C2B4120E07C2B72211
:100F2F00AE12AF137C00120AF67C007D0A120AF68D
:040F3F00ED2430FF6E
:080F4300D2B4120E07C2B7225E
:100E34008B368A378938AB36AA37A938120ABB6091
:100E44001A0538E5387002053714F9120ABBFF1287
:0C0E54000F437F017E00120E1680DB228F
:100EF500C2B6C2B77F38120FA07F0E120FA07F06B1
:0D0F0500120FA07F01120FA07F80020FA02D
:100E8900D2A0E4FF0FBF02FCC2A0E4FF0FBFC8FC61
:100E9900D2A0E4FF0FBF14FCA2A09208E4FF0FBF89
:060EA90096FCD2A0A20895
:010EAF002220
:100F1200E4FEC2A00000EF1392A0E4FD0DBD14FC9C
:0C0F2200EFC313FFD2A000000EBE08E6D3
:010F2E0022A0
:100E6000E4FFFEC2A000D2A0E4FD0DBD01FCEFC373
:100E700013FF30A0054307808000D2A00000E4FDEE
:080E80000DBD14FC0EBE08DBE1
:010E88002247
:100C8200E4FBFA120E89404D7FCC120F127F441200
:100C92000F127FE87E03120E16120E8940377FCCA8
:100CA200120F127FBE120F1200120E60AB07120E4D
:100CB20060AA07EFFE7C00E42BFDEC3EFCE4120987
:100CC2000BE4FBFA7920783F1208001209448E12D5
:050CD2008F13120E89D2
:010CD70022FA
:100EB000E4FDFCC3ED9FEC9E50070DBD00010C80CE
:100EC000F2E4FCFDC3ED9FEC9E50070DBD00010C4C
:020ED00080F2AE
:010ED20022FD
:0B0F9500EFD394004004001F80F62200
:100D25007F64120F95C290D291C292120D647B001E
:100D35007A007908753D057F2B120D6F7D037F21A4
:100D4500120F777D037F22120F77E4FD7F25120FA7
:0F0D5500777D147F32120F777D077F26020F778D
:100F4B00E4FEEF339293EF25E0FFD292A294E433C9
:080F5B004207C2920EBE08EA33
:010F6300226B
:0C0F8800C291120F4BE4FF120F4BD291EC
:010F9400223A
:100F7700C291120F4BAC07AF05120F4BD291AF04C2
:010F87002247
:060DD6008B158A16891737
:100DDC00C291120F4BAD07E4FCECC395185017E40D
:100DEC00FF120F4BAB15AA16A9178C82758300EF57
:0A0DFC00120AD40C80E3D291AF0577
:010E060022C9
:0B0D64007B007A00790D753D057F30A3
:060D6F008B3A8A3B893C2F
:100D7500C291120F4BAD07E4FCECC3953D5018AB87
:100D85003A053CE53CAA3B7002053B14F9120ABB47
:0B0D9500FF120F4B0C80E2D291AF0563
:010DA0002230
:060CD8008B198A1A891B2A
:100CDE00E4F51CFB7A007908753D057F2A120D6F2D
:100CEE00C2907D1F7F20120F77D2907F82120F95B8
:100CFE007F07120F888F20300613C290AB19AA1AE5
:100D0E00A91B7518147F61120DD6751C01AD207FBD
:060D1E0027120F77AF1C45
:010D240022AC
:100DA1008B368A378938C290120D647B007A0079BC
:100DB1000D753D057F2A120D6FAB36AA37A938751F
:100DC1003D147FA0120D6F7D1E7F20120F77D290F0
:050DD1007F14020F95E4
:100B590078227C007D007BFF7A0E79E17E007F148C
:100B6900120A95E4F512F513120EF5120D257FE818
:100B79007E03120E16120E89404D120C827F8012CE
:100B89000FA07BFF7A0E79D3120E347F3A120F43EE
:100B99007FC4120FA07D64120F2F7D0A120F2F7FC1
:100BA9002E120F43AE12AF13120F387FDF120F430D
:100BB9007F63120F43E512F523851324C2967F0143
:100BC9007E00120E16D2967B007A007922120DA1B0
:100BD900E4F523F5247FE87E03120E167F07120F32
:0D0BE900888F20AD207F27120F77020B7E32
:10080000EC4D6011E8497017ED33EC3304600DE4F2
:10081000FCFFFEFD22E933E8330470F80209B01250
:10082000097B58046009E4CC248150062850090251
:1008300009BA2840030209B7C0E0EB4A7044B98006
:1008400006D0E0FB0209A6EF4E701CBD8008EBFF4E
:10085000EAFEE9FD80EBE98DF0A4FEE5F00208E98F
:10086000E9CDF9EAFEEBFFEF89F0A4FCE5F0CE89D3
:10087000F0A42EFFE435F0CD89F0A42DFEE435F090
:100880008067EF4E7005BD80D780C3EF8BF0A4ACBE
:10089000F0EE8BF0A42CFCE435F0F8EF8AF0A42CF9
:1008A000E5F038FCE433CB8DF0A42CFCE5F03BF80C
:1008B000EE8AF0A42CFCE5F038F8E433CF89F0A4FC
:1008C0002CFCE5F038CF3400CE89F0A42FFFE5F002
:1008D0003EFEE433C98DF0A42EFEE5F039CD8AF05A
:1008E000A42FFFE5F03EFEE43DFD33D0E0FB5007D2
:1008F0000BBB000F0209BAEC2CFCEF33FFEE33FE0A
:06090000ED33FD02099237
:1009060075F020800E75F010800575F0087D007E6C
:10091600007F003392D530D503120B4BEC334010D9
:10092600EF33FFEE33FEED33FDEC33FCD5F0ED2275
:0E093600E5F0247EA2D513CC92E7CDCEFF22B1
:10094400EDD2E7CD33EC3392D524814006E4FFFEAB
:10095400FDFC22FCE4CFCECDCC24E0501174FF800A
:10096400EDC3CC13CCCD13CDCE13CECF13CF0470A7
:07097400F030D5DE020B4B51
:10097B00E9D2E7C933E833F892D5EDD2E7CD33ECC2
:07098B0033FC5002B2D5223B
:10099200EC30E7100FBF000C0EBE00080DBD0004C6
:1009A2000BEB6014A2D5EB13FCED92E7FD2274FF72
:1009B200FCFDFEFF22E480F8A2D574FF13FC7D80CB
:0309C200E480EFDF
:100C0200020B59E493A3F8E493A34003F68001F2A4
:100C120008DFF48029E493A3F85407240CC8C333F3
:100C2200C4540F4420C8834004F456800146F6DFC2
:100C3200E4800B0102040810204080900F64E47EDF
:100C4200019360BCA3FF543F30E509541FFEE493B7
:100C5200A360010ECF54C025E060A840B8E493A37E
:100C6200FAE493A3F8E493A3C8C582C8CAC583CAA9
:100C7200F0A3C8C582C8CAC583CADFE9DEE780BE61
:010F7600007A
:1009C500E709F608DFFA8046E709F208DFFA803E14
:1009D50088828C83E709F0A3DFFA8032E309F60801
:1009E500DFFA8078E309F208DFFA807088828C8369
:1009F500E309F0A3DFFA806489828A83E0A3F6081D
:100A0500DFFA805889828A83E0A3F208DFFA804CF6
:100A150080D280FA80C680D4806980F280338010CD
:100A250080A680EA809A80A880DA80E280CA803336
:100A350089828A83ECFAE493A3C8C582C8CCC583AE
:100A4500CCF0A3C8C582C8CCC583CCDFE9DEE7807E
:100A55000D89828A83E493A3F608DFF9ECFAA9F0FD
:100A6500EDFB2289828A83ECFAE0A3C8C582C8CC53
:100A7500C583CCF0A3C8C582C8CCC583CCDFEADE6C
:100A8500E880DB89828A83E493A3F208DFF980CCCE
:100A950088F0EF60010E4E60C388F0ED2402B404C7
:100AA5000050B9F582EB2402B4040050AF2323456E
:060AB5008223900A157374
:100ABB00BB010689828A83E0225002E722BBFE0239
:090ACB00E32289828A83E493226C
:100AD400F8BB010DE58229F582E5833AF583E8F058
:100AE400225006E92582C8F622BBFE05E92582C804
:020AF400F222EC
:100AF600BC000BBE0029EF8DF084FFADF022E4CCE4
:100B0600F875F008EF2FFFEE33FEEC33FCEE9DECAC
:100B1600984005FCEE9DFE0FD5F0E9E4CEFD22EDF2
:100B2600F8F5F0EE8420D21CFEADF075F008EF2F3C
:100B3600FFED33FD4007985006D5F0F222C398FD2D
:050B46000FD5F0EA22CA
:0E0B4B00C3E49FFFE49EFEE49DFDE49CFC22BB
:00000001FF
