:10074A002020B3ACC9F9B2A8B2E2BEE0D2C700BB5E
:10075A00B7BEB3CEC2B6C83A00B5B1C7B0C9F9CBB5
:10076A00D93A00B2E2C1BFBEE0C0EB3A00B6C80057
:04087B000215000062
:0F077A008F807F017E00120789D2B77F017E003A
:10078900D3EF9400EE940040147D727C00ED1D704F
:0D079900011CED4C70F7EF1F70E61E80E3B1
:0107A6002230
:08000300C2B412077AC2B72251
:100861007C007D641202F67C007D0A1202F6ED2402
:0208710030FF56
:08087300D2B412077AC2B722C9
:1007A7008B108A118912AB10AA11A9121202CB6001
:1007B7001A0512E5127002051114F91202CBFF1285
:0C07C70008737F057E0012078980DB228A
:10082300BF01047F808013BF02047F90800CBF034D
:10083300047F888005BF04027F98EF2D14FF020018
:0108430003B1
:10069000C2B6C2B77F011200037F057E0012078930
:1006A0007F301200037F061200037F0C1200037FCD
:1006B000881200037D017F011208237BFF7A0779EE
:1006C0004A1207A77D017F021208237BFF7A077970
:1006D000591207A77D017F031208237BFF7A077950
:1006E000631207A77D017F041208237BFF7A077935
:0406F0006D0207A7E9
:1007FC00D2A0E4FF0FBF02FCC2A0E4FF0FBFC8FCF5
:10080C00D2A0E4FF0FBF14FCA2A09201E4FF0FBF23
:06081C0096FCD2A0A2012F
:0108220022B3
:10084400E4FEC2A00000EF1392A0E4FD0DBD14FC71
:0C085400EFC313FFD2A000000EBE08E6A8
:010860002275
:1007D300E4FFFEC2A000D2A0E4FD0DBD01FCEFC307
:1007E30013FF30A0054307808000D2A00000E4FD82
:0807F3000DBD14FC0EBE08DB75
:0107FB0022DB
:1006F400E4FBFA1207FC404D7FCC1208447F4412FD
:1007040008447FE87E031207891207FC40377FCC38
:100714001208447FBE120844001207D3AB07120725
:10072400D3AA07EFFE7C00E42BFDEC3EFCE41202AE
:1007340011E4FBFA7920783F12010612024A8E1561
:050744008F161207FCF6
:01074900228D
:10047600E4F508F509C2A1D2AFD2ABD2A9758901BC
:10048600F58CF58AF50EF50FC28CF515F5161206E4
:10049600907FE87E031207891207FC500302053A93
:1004A6001206F47D067F02120823AE15AF16120857
:1004B60061AE15AF167C007D0A1208657F2E120804
:1004C60073AE15AF161208687BFF7A0779771207A5
:1004D600A77D067F03120823AE15AF167C007D3D6F
:1004E6001202E47D0A1202F67C007D641202F6AC6A
:1004F60006AD07E41202117B9A7AB979A578431200
:10050600001512024A8E088F09120861AE08AF095B
:100516007C007D0A120865AE08AF091208687F6D77
:100526001208737F2F1208737F73120873C2961214
:100536000785D296D2A1000000000000000000004E
:1005460000C2A130A2FDD28C20A2FDC28CAF8CEFDE
:10055600FEAD8A7C00E42DFFEC3EFEE48F0D8E0C92
:10056600F50BF50AAE08AF09FDAB0DAA0CA90BA851
:100576000A12034BE47BC8FAF9F81203D6E47B0AA5
:10058600FAF9F81203D68E0E8F0FD3E50F9470E5A5
:100596000E941750033000227D067F041208237F35
:1005A6002D1208737F2E1208737F2D1208737F2D6C
:1005B6001208737F2D12087380357D067F0412089A
:1005C60023AE0EAF0F7C037DE81208657F2E12085E
:1005D60073AE0EAF0F120861AE0EAF0F7C007D0A30
:1005E600120865AE0EAF0F1208687F6D120873E42D
:0E05F600F58CF58A7FD07E0712078902049EDD
:03000B0002088068
:03088000D2003271
:10000E000202B6E86480F8E933E83360110460F068
:10001E00ED33EC337009E8FCE9FDEAFEEBFF220458
:10002E0060DED3EB9FEA9EE99DE8C2E78CF0C2F753
:10003E0095F0400CE8CCF8E9CDF9EACEFAEBCFFB1F
:10004E0012028185D0F05804700320D5B3E80470F5
:10005E00075002B2D50202C092D5EC0460F7E4CC90
:10006E00C0E0C398F8603B94186008400DD0E0FBE8
:10007E00020298E4FBFAC9FC8028E830E406E4C9E1
:10008E00FBE4CAFCE830E305E4C9CACBFCE854073C
:10009E006010F8C3E913F9EA13FAEB13FBEC13FC47
:1000AE00D8F130F52FC3E49CFCEF9BFFEE9AFEEDEA
:1000BE0099FDD0E0FBEF4E4D4C701222DB03020295
:1000CE00BDEC2CFCEF33FFEE33FEED33FDED30E7F0
:1000DE00EB020298EF2BFFEE3AFEED39FDD0E0FB7E
:1000EE0050130BBB00030202C0ED13FDEE13FEEF27
:0800FE0013FFEC13FC02029851
:10010600EC4D6011E8497017ED33EC3304600DE4F3
:10011600FCFFFEFD22E933E8330470F80202B61252
:10012600028158046009E4CC248150062850090253
:1001360002C02840030202BDC0E0EB4A7044B98009
:1001460006D0E0FB0202ACEF4E701CBD8008EBFF50
:10015600EAFEE9FD80EBE98DF0A4FEE5F00201EF91
:10016600E9CDF9EAFEEBFFEF89F0A4FCE5F0CE89D4
:10017600F0A42EFFE435F0CD89F0A42DFEE435F091
:100186008067EF4E7005BD80D780C3EF8BF0A4ACBF
:10019600F0EE8BF0A42CFCE435F0F8EF8AF0A42CFA
:1001A600E5F038FCE433CB8DF0A42CFCE5F03BF80D
:1001B600EE8AF0A42CFCE5F038F8E433CF89F0A4FD
:1001C6002CFCE5F038CF3400CE89F0A42FFFE5F003
:1001D6003EFEE433C98DF0A42EFEE5F039CD8AF05B
:1001E600A42FFFE5F03EFEE43DFD33D0E0FB5007D3
:1001F6000BBB000F0202C0EC2CFCEF33FFEE33FE0C
:06020600ED33FD02029839
:10020C0075F020800E75F010800575F0087D007E6D
:10021C00007F003392D530D503120468EC334010C4
:10022C00EF33FFEE33FEED33FDEC33FCD5F0ED2276
:0E023C00E5F0247EA2D513CC92E7CDCEFF22B2
:10024A00EDD2E7CD33EC3392D524814006E4FFFEAC
:10025A00FDFC22FCE4CFCECDCC24E0501174FF800B
:10026A00EDC3CC13CCCD13CDCE13CECF13CF0470A8
:07027A00F030D5DE0204683C
:10028100E9D2E7C933E833F892D5EDD2E7CD33ECC3
:0702910033FC5002B2D5223C
:10029800EC30E7100FBF000C0EBE00080DBD0004C7
:1002A8000BEB6014A2D5EB13FCED92E7FD2274FF73
:1002B800FCFDFEFF22E480F8A2D574FF13FC7D80CC
:0302C800E480EFE0
:03000000020604F1
:0C060400787FE4F6D8FD75812002064BDB
:1002CB00BB010689828A83E0225002E722BBFE0231
:0902DB00E32289828A83E4932264
:1002E400EF8DF0A4A8F0CF8CF0A428CE8DF0A42E2E
:0202F400FE22E8
:1002F600BC000BBE0029EF8DF084FFADF022E4CCEC
:10030600F875F008EF2FFFEE33FEEC33FCEE9DECB4
:10031600984005FCEE9DFE0FD5F0E9E4CEFD22EDFA
:10032600F8F5F0EE8420D21CFEADF075F008EF2F44
:10033600FFED33FD4007985006D5F0F222C398FD35
:050346000FD5F0EA22D2
:10034B00E88FF0A4CC8BF0A42CFCE98EF0A42CFC51
:10035B008AF0EDA42CFCEA8EF0A4CDA8F08BF0A4CF
:10036B002DCC3825F0FDE98FF0A42CCD35F0FCEB2E
:10037B008EF0A4FEA9F0EB8FF0A4CFC5F02ECD39F3
:0F038B00FEE43CFCEAA42DCE35F0FDE43CFC2260
:10039A0075F008758200EF2FFFEE33FECD33CDCC1A
:1003AA0033CCC58233C5829BED9AEC99E58298409D
:1003BA000CF582EE9BFEED9AFDEC99FC0FD5F0D67A
:1003CA00E4CEFBE4CDFAE4CCF9A88222B800C1B9A4
:1003DA000059BA002DEC8BF084CFCECDFCE5F0CBE2
:1003EA00F97818EF2FFFEE33FEED33FDEC33FCEB1B
:1003FA0033FB10D703994004EB99FB0FD8E5E4F9D6
:10040A00FA227818EF2FFFEE33FEED33FDEC33FCC2
:10041A00C933C910D7059BE99A4007EC9BFCE99AB6
:10042A00F90FD8E0E4C9FAE4CCFB2275F010EF2FFB
:10043A00FFEE33FEED33FDCC33CCC833C810D707FB
:10044A009BEC9AE899400AED9BFDEC9AFCE899F836
:0E045A000FD5F0DAE4CDFBE4CCFAE4C8F922C9
:0E046800C3E49FFFE49EFEE49DFDE49CFC22A5
:10061000020476E493A3F8E493A34003F68001F286
:1006200008DFF48029E493A3F85407240CC8C333EB
:10063000C4540F4420C8834004F456800146F6DFBA
:10064000E4800B010204081020408090087BE47EC7
:10065000019360BCA3FF543F30E509541FFEE493AF
:10066000A360010ECF54C025E060A840B8E493A376
:10067000FAE493A3F8E493A3C8C582C8CAC583CAA1
:10068000F0A3C8C582C8CAC583CADFE9DEE780BE59
:01087F000078
:00000001FF
