:03000000020026D5
:0C002600787FE4F6D8FD75810D02006DB6
:0D00CF006675636B696E672069726461007D
:0800F0000309FF00CF01080025
:100003001200B27F051200DCE4FFE4F50C050CE5F9
:0E0013000CB414F90FBFFAF2E4F50CFF80E50F
:030023000200F9DF
:0200F900C2AA99
:0100FB0032D2
:0A00DC00C2998F993099FDC2992254
:0A00E600C2998F993099FDC299224A
:1000B20053877F759850438E40538EFE53890F436A
:0D00C2008920758BDC758DDCC2ABD28E22DF
:10003200020003E493A3F8E493A34003F68001F2E1
:1000420008DFF48029E493A3F85407240CC8C333CF
:10005200C4540F4420C8834004F456800146F6DF9E
:10006200E4800B01020408102040809000F0E47E3E
:10007200019360BCA3FF543F30E509541FFEE49393
:10008200A360010ECF54C025E060A840B8E493A35A
:10009200FAE493A3F8E493A3C8C582C8CAC583CA85
:1000A200F0A3C8C582C8CAC583CADFE9DEE780BE3D
:0100F8000007
:00000001FF
