:10000E002620202020202610201020802620302080
:10001E0030203910301030802620202020201C2047
:10002E0020802B20262020202B1026102B802620EF
:10003E00302030203910261026604010391026103E
:10004E003020302039102610268026202B102B1021
:10005E002B203010391026102B102B202B40402037
:10006E00201020102B10263030801820182026202B
:10007E002020204026202B20302030201C20202025
:10008E0020801C201C201C20302030603910302095
:0D01210075890175A882758CD8758AEF224A
:03000B00020144AB
:09014400758CD8758AEF050B32A9
:10010100E4FDFCC3ED9FEC9E5015E4FBFA0BBB0034
:0F011100010AEB64034A70F50DBD00010C80E498
:0101200022BC
:10009E00E4F50BEF75F0D9A485F009F50A050AE52C
:1000AE000AAE097002050914240EF58274003EF59D
:1000BE0083E493F9B9FF0BC28C7F647E00120101B9
:1000CE0080DBE9602D050AE50AAE09700205091408
:1000DE00240EF58274003EF583E493F508D28CB2BB
:1000EE0096E9FF7E00120101E508B50BF2E4F50B6F
:0200FE0080ABD5
:0101000022DC
:0A013A00120121E4FF12009E80F97B
:0300000002012ECC
:0C012E00787FE4F6D8FD75810B02013AE1
:00000001FF
