:10044C0020202048756D0020202054656D00000090
:10045C000000000000000000000000000000000090
:02046C0000008E
:0E04CD00050D354310100305083543101003CC
:0F03D0008F807F057E001203DFD2B77F057E008E
:1003DF00D3EF9400EE940040147D727C00ED1D70FD
:0D03EF00011CED4C70F7EF1F70E61E80E35F
:0103FC0022DE
:0804F400C2B41203D0C2B7220A
:1004A40012011275F00A8475F00A84E5F02430FF15
:0804B400D2B41203D0C2B7223A
:1003FD008B398A3A893BAB39AA3AA93B1200F9608D
:10040D001A053BE53B7002053A14F91200F9FF128B
:0C041D0004B47F017E001203DF80DB22AC
:10046E00C2B6C2B77F381204F47F0E1204F47F06B0
:0D047E001204F47F011204F47F800204F4E4
:10042900E4FDFCC3ED9FEC9E50070DBD00010C805F
:10043900F2E4FCFDC3ED9FEC9E50070DBD00010CDD
:0204490080F23F
:01044B00228E
:0B04E900EFD394004004001F80F622B7
:1002A8007F641204E9C290D291C2927B007A0079ED
:1002B8000D753D057F3012036D7B007A0079087556
:1002C8003D057F2B12036D7D037F211204BC7D0346
:1002D8007F221204BCE4FD7F251204BC7D147F320A
:0D02E8001204BC7D077F261204BCD29022B8
:10048B00E4FEEF339293EF25E0FFD292A294E43394
:08049B004207C2920EBE08EAFE
:0104A3002236
:0C04DC00C29112048BE4FF12048BD29139
:0104E80022F1
:1004BC00C29112048BAC07AF0512048BD291AF041E
:0104CC00220D
:06039F008B3A8A3B893C09
:1003A500C29112048BAD07E4FCECC3953D5017E4F4
:1003B500FF12048BAB3AAA3BA93C8C82758300EFF4
:0A03C50012013F0C80E3D291AF0556
:0103CF00220B
:06036D008B3A8A3B893C3B
:10037300C29112048BAD07E4FCECC3953D5018AB5E
:100383003A053CE53CAA3B7002053B14F91200F91F
:0B039300FF12048B0C80E2D291AF053A
:01039E00223C
:060161008B358A36893758
:10016700E4F538FB7A007908753D057F2A12036D9F
:10017700C2907D0F7F201204BCD2907F821204E9C7
:100187007F071204DC8F20200603020212C290AB05
:1001970035AA36A937753D147F6112039F7538015B
:1001A7007F801204F47BFF7A04794C1203FD7F3AB7
:1001B7001204B4AB35AA36A9379000011204A4ABD8
:1001C70035AA36A9379000011201121204AB7F2518
:1001D7001204B47FC01204F47BFF7A04795312032C
:1001E700FD7F3A1204B4AB35AA36A9379000021244
:1001F70004A4AB35AA36A9379000021201121204E3
:10020700AB7FDF1204B47F631204B4AD207F2712E3
:0402170004BCAF383C
:01021B0022C0
:1002F5008B138A148915C2907B007A00790D753DA0
:10030500057F3012036D7B007A00790D753D057F01
:100315002A12036DAB13AA14A915753D147FA012FB
:10032500036D7D0E7F201204BCD2907F140204E978
:1003350078217C007D007BFF7A04795A7E007F144A
:100345001200D312046E1202A8D297D296C2A77FCA
:10035500647E00120429D2A77B007A00792112015C
:0803650061E4F522F52380F0AC
:0300000002021CDD
:0C021C00787FE4F6D8FD75813D02026396
:10000300E709F608DFFA8046E709F208DFFA803EDF
:1000130088828C83E709F0A3DFFA8032E309F608CC
:10002300DFFA8078E309F208DFFA807088828C8334
:10003300E309F0A3DFFA806489828A83E0A3F608E8
:10004300DFFA805889828A83E0A3F208DFFA804CC2
:1000530080D280FA80C680D4806980F28033801099
:1000630080A680EA809A80A880DA80E280CA803302
:1000730089828A83ECFAE493A3C8C582C8CCC5837A
:10008300CCF0A3C8C582C8CCC583CCDFE9DEE7804A
:100093000D89828A83E493A3F608DFF9ECFAA9F0C9
:1000A300EDFB2289828A83ECFAE0A3C8C582C8CC1F
:1000B300C583CCF0A3C8C582C8CCC583CCDFEADE38
:1000C300E880DB89828A83E493A3F208DFF980CC9A
:1000D30088F0EF60010E4E60C388F0ED2402B40493
:1000E3000050B9F582EB2402B4040050AF2323453A
:0600F3008223900053730C
:1000F900BB010689828A83E0225002E722BBFE0205
:09010900E32289828A83E4932237
:10011200BB010CE58229F582E5833AF583E02250A2
:1001220006E92582F8E622BBFE06E92582F8E222EC
:0D013200E58229F582E5833AF583E4932206
:10013F00F8BB010DE58229F582E5833AF583E8F0F6
:10014F00225006E92582C8F622BBFE05E92582C8A2
:02015F00F2228A
:10022800020335E493A3F8E493A34003F68001F2B4
:1002380008DFF48029E493A3F85407240CC8C333D7
:10024800C4540F4420C8834004F456800146F6DFA6
:10025800E4800B01020408102040809004CDE47E65
:10026800019360BCA3FF543F30E509541FFEE4939B
:10027800A360010ECF54C025E060A840B8E493A362
:10028800FAE493A3F8E493A3C8C582C8CAC583CA8D
:10029800F0A3C8C582C8CAC583CADFE9DEE780BE45
:0104DB000020
:00000001FF
