:03000000020B37B9
:0C0B3700787FE4F6D8FD758140020B7E4B
:100CEF0074656D70657261747572653A000000000D
:100CFF0000000000000000000000000000000000E5
:0D0D0F0000000000000000000000000000D7
:040DD900020800000C
:0F0CC2008F807F057E00120CD1D2B77F057E0098
:100CD100D3EF9400EE940040147D727C00ED1D7002
:0D0CE100011CED4C70F7EF1F70E61E80E364
:010CEE0022E3
:080DD100C2B4120CC2C2B72229
:100DB500AE08AF097C00120AD47C007D0A120AD461
:040DC500ED2430FFEA
:080DC900D2B4120CC2C2B72221
:100D1C008B218A228923AB21AA22A923120ABB6028
:100D2C001A0523E5237002052214F9120ABBFF12DF
:0C0D3C000DC97F017E00120CD180DB226B
:100C7F0078217C007D007BFF7A0C79FC7E007F1051
:100C8F00120A9578317C007D007BFF7A0D790C7EFE
:100C9F00007F10120A95C2B6C2B77F38120DD17FEE
:100CAF000E120DD17F06120DD17F01120DD17F8053
:030CBF00020DD152
:100D7100D2A0E4FF0FBF02FCC2A0E4FF0FBFC8FC7A
:100D8100D2A0E4FF0FBF14FCA2A09200E4FF0FBFAA
:060D910096FCD2A0A200B6
:010D97002239
:100D9800E4FEC2A00000EF1392A0E4FD0DBD14FC18
:0C0DA800EFC313FFD2A000000EBE08E64F
:010DB400221C
:100D4800E4FFFEC2A000D2A0E4FD0DBD01FCEFC38C
:100D580013FF30A0054307808000D2A00000E4FD07
:080D68000DBD14FC0EBE08DBFA
:010D70002260
:100BC300E4F521F9FBFA120D7140527FCC120D9816
:100BD3007F44120D987FE87E03120CD1120D7140F1
:100BE300387FCC120D987FBE120D9800120D488FDE
:100BF30021120D48A907EFFE7C00E42521FDEC3E00
:100C0300FCE412090BE4FBFA7920783F1208001286
:0D0C13000944AA06AB07120D71AE02AF0333
:010C200022B1
:100C2100120C7F7FE87E03120CD1120D7140FB1272
:100C31000BC38E088F097F80120DD17BFF7A0C794F
:100C4100EF120D1C7FC4120DD17D64120DB57D0A0A
:100C5100120DB57F2E120DC9AE08AF09120DBE7F60
:100C6100DF120DC97F63120DC9C2967F017E00128A
:0E0C71000CD1D2967FD07E07120CD1020C2B34
:10080000EC4D6011E8497017ED33EC3304600DE4F2
:10081000FCFFFEFD22E933E8330470F80209B01250
:10082000097B58046009E4CC248150062850090251
:1008300009BA2840030209B7C0E0EB4A7044B98006
:1008400006D0E0FB0209A6EF4E701CBD8008EBFF4E
:10085000EAFEE9FD80EBE98DF0A4FEE5F00208E98F
:10086000E9CDF9EAFEEBFFEF89F0A4FCE5F0CE89D3
:10087000F0A42EFFE435F0CD89F0A42DFEE435F090
:100880008067EF4E7005BD80D780C3EF8BF0A4ACBE
:10089000F0EE8BF0A42CFCE435F0F8EF8AF0A42CF9
:1008A000E5F038FCE433CB8DF0A42CFCE5F03BF80C
:1008B000EE8AF0A42CFCE5F038F8E433CF89F0A4FC
:1008C0002CFCE5F038CF3400CE89F0A42FFFE5F002
:1008D0003EFEE433C98DF0A42EFEE5F039CD8AF05A
:1008E000A42FFFE5F03EFEE43DFD33D0E0FB5007D2
:1008F0000BBB000F0209BAEC2CFCEF33FFEE33FE0A
:06090000ED33FD02099237
:1009060075F020800E75F010800575F0087D007E6C
:10091600007F003392D530D503120B29EC334010FB
:10092600EF33FFEE33FEED33FDEC33FCD5F0ED2275
:0E093600E5F0247EA2D513CC92E7CDCEFF22B1
:10094400EDD2E7CD33EC3392D524814006E4FFFEAB
:10095400FDFC22FCE4CFCECDCC24E0501174FF800A
:10096400EDC3CC13CCCD13CDCE13CECF13CF0470A7
:07097400F030D5DE020B2973
:10097B00E9D2E7C933E833F892D5EDD2E7CD33ECC2
:07098B0033FC5002B2D5223B
:10099200EC30E7100FBF000C0EBE00080DBD0004C6
:1009A2000BEB6014A2D5EB13FCED92E7FD2274FF72
:1009B200FCFDFEFF22E480F8A2D574FF13FC7D80CB
:0309C200E480EFDF
:100B4300020C21E493A3F8E493A34003F68001F29B
:100B530008DFF48029E493A3F85407240CC8C333B3
:100B6300C4540F4420C8834004F456800146F6DF82
:100B7300E4800B0102040810204080900DD9E47E2C
:100B8300019360BCA3FF543F30E509541FFEE49377
:100B9300A360010ECF54C025E060A840B8E493A33E
:100BA300FAE493A3F8E493A3C8C582C8CAC583CA69
:100BB300F0A3C8C582C8CAC583CADFE9DEE780BE21
:010DDD000015
:1009C500E709F608DFFA8046E709F208DFFA803E14
:1009D50088828C83E709F0A3DFFA8032E309F60801
:1009E500DFFA8078E309F208DFFA807088828C8369
:1009F500E309F0A3DFFA806489828A83E0A3F6081D
:100A0500DFFA805889828A83E0A3F208DFFA804CF6
:100A150080D280FA80C680D4806980F280338010CD
:100A250080A680EA809A80A880DA80E280CA803336
:100A350089828A83ECFAE493A3C8C582C8CCC583AE
:100A4500CCF0A3C8C582C8CCC583CCDFE9DEE7807E
:100A55000D89828A83E493A3F608DFF9ECFAA9F0FD
:100A6500EDFB2289828A83ECFAE0A3C8C582C8CC53
:100A7500C583CCF0A3C8C582C8CCC583CCDFEADE6C
:100A8500E880DB89828A83E493A3F208DFF980CCCE
:100A950088F0EF60010E4E60C388F0ED2402B404C7
:100AA5000050B9F582EB2402B4040050AF2323456E
:060AB5008223900A157374
:100ABB00BB010689828A83E0225002E722BBFE0239
:090ACB00E32289828A83E493226C
:100AD400BC000BBE0029EF8DF084FFADF022E4CC06
:100AE400F875F008EF2FFFEE33FEEC33FCEE9DECCF
:100AF400984005FCEE9DFE0FD5F0E9E4CEFD22ED15
:100B0400F8F5F0EE8420D21CFEADF075F008EF2F5E
:100B1400FFED33FD4007985006D5F0F222C398FD4F
:050B24000FD5F0EA22EC
:0E0B2900C3E49FFFE49EFEE49DFDE49CFC22DD
:00000001FF
