:030000000206D520
:0C06D500787FE4F6D8FD75814302071C15
:1009D600202054656D00202020446973000000002B
:1009E6000000000000000000000000000000000001
:0109F6000000
:100A6400050D354310100305083543101003021417
:020A7400000080
:0F0936008F807F057E00120945D2B77F057E00B6
:10094500D3EF9400EE940040147D727C00ED1D7091
:0D095500011CED4C70F7EF1F70E61E80E3F3
:010962002272
:08000300C2B4120936C2B72293
:100A31007C007D641204AE7C007D0A1204AEED24BC
:020A410030FF84
:080A4300D2B4120936C2B72239
:0B089C007FC01200037BFF7A0979DCAB
:1008A7008B3C8A3D893EAB3CAA3DA93E1204616060
:1008B7001A053EE53E7002053D14F9120461FF1268
:0C08C7000A437F017E0012094580DB22FD
:1009F700C2B6C2B77F381200037F0E1200037F060C
:0D0A07001200037F011200037F8002000334
:10098C00D2A0E4FF0FBF02FCC2A0E4FF0FBFC8FC63
:10099C00D2A0E4FF0FBF14FCA2A09209E4FF0FBF8A
:0609AC0096FCD2A0A20996
:0109B2002222
:100A1400E4FEC2A00000EF1392A0E4FD0DBD14FC9F
:0C0A2400EFC313FFD2A000000EBE08E6D6
:010A300022A3
:10096300E4FFFEC2A000D2A0E4FD0DBD01FCEFC375
:1009730013FF30A0054307808000D2A00000E4FDF0
:080983000DBD14FC0EBE08DBE3
:01098B002249
:1007B900E4FBFA12098C404D7FCC120A147F4412D3
:1007C9000A147FE87E0312094512098C40377FCC51
:1007D900120A147FBE120A1400120963AB07120928
:1007E90063AA07EFFE7C00E42BFDEC3EFCE4120259
:1007F900B1E4FBFA7920783F1201061202EA8E145D
:050809008F1512098C9F
:01080E0022C7
:1009B300E4FDFCC3ED9FEC9E50070DBD00010C80D0
:1009C300F2E4FCFDC3ED9FEC9E50070DBD00010C4E
:0209D30080F2B0
:0109D50022FF
:0B0A9500EFD394004004001F80F62205
:100761007F64120A95C290D291C2927B007A00797D
:100771000D7543057F301208D37B007A0079087527
:1007810043057F2B1208D37B007A00790875430556
:100791007F2A1208D37D037F21120A777D037F22EE
:1007A100120A77E4FD7F25120A777D147F32120A3F
:0807B100777D077F26020A771D
:100A4B00E4FEEF339293EF25E0FFD292A294E433CE
:080A5B004207C2920EBE08EA38
:010A63002270
:0C0A8800C291120A4BE4FF120A4BD291FB
:010A9400223F
:100A7700C291120A4BAC07AF05120A4BD291AF04D1
:010A8700224C
:060905008B188A19891A03
:10090B00C291120A4BAD07E4FCECC3951B5017E4E4
:10091B00FF120A4BAB18AA19A91A8C82758300EF28
:0A092B0012047A0C80E3D291AF05AC
:01093500229F
:0608D3008B408A418942BE
:1008D900C291120A4BAD07E4FCECC395435018AB27
:1008E900400542E542AA417002054114F91204612A
:0B08F900FF120A4B0C80E2D291AF0509
:0109040022D0
:06080F008B1C8A1D891EEE
:10081500E4F51FFB7A0079087543057F2A1208D392
:10082500C2907D1F7F20120A77D2907F82120A958F
:100835007F07120A888F20300613C290AB1CAA1DB1
:10084500A91E751B147F61120905751F01AD207F57
:0608550027120A77AF1F15
:01085B00227A
:10085C008B3C8A3D893EC2907B007A00790D7543B2
:10086C00057F301208D37B007A00790D7543057F24
:10087C002A1208D3AB3CAA3DA93E7543147FA012A3
:10088C0008D37D1E7F20120A77D2907F14020A951E
:1005110078227C007D007BFF7A0979E37E007F14DD
:1005210012043BC2A1D2AFD2ABD2A9758901E4F5C5
:100531008CF58AF53AF53BC28CF514F5151209F7DD
:100541001207617FE87E0312094512098C4050129F
:1005510007B97F801200037BFF7A0979D61208A7B9
:100561007F3A120A43AE14AF15120A31AE14AF1519
:100571007C007D0A120A357F2E120A43AE14AF1594
:10058100120A387FDF120A437F63120A43E514F52A
:1005910024851525C2967F017E00120945D296D287
:1005A100A10000000000000000000000C2A130A274
:1005B100FDD28C20A2FDC28CAF8CEFFEAD8A7C00F7
:1005C100E42DFFEC3EFEE48F398E38F537F536AE7B
:1005D10014AF157D3D12049C7D0A1204AEEEC4F8E1
:1005E10054F0C868FCEFC4540F48FDE41202B17B1B
:1005F1009A7AB979A57843120015C004C005C006DE
:10060100C007AF39AE38AD37AC36E41202ACD00317
:10061100D002D001D000120106E4FBFA79487843F8
:1006210012020FE4FBFA7920784112020F1202EA5A
:100631008E3A8F3BD3E53B9470E53A9417500330E3
:10064100082912089C7F3A120A437F2D120A437F20
:100651002E120A437F2D120A437F2D120A437F2D4A
:10066100120A43E4F522F5230206A912089C7F3AF7
:10067100120A43AE3AAF3B7C037DE8120A357F2E66
:10068100120A43AE3AAF3B120A31AE3AAF3B7C009D
:100691007D0A120A35AE3AAF3B120A387F6D120A53
:1006A10043E53AF522853B237B007A007922120843
:1006B1005CE4F522F523F524F58CF58A7FD07E07DD
:1006C1001209457F07120A888F20AD207F27120A61
:0406D1007702054B5C
:03000B00020AA046
:030AA000D2083247
:10000E00020356E86480F8E933E83360110460F0C7
:10001E00ED33EC337009E8FCE9FDEAFEEBFF220458
:10002E0060DED3EB9FEA9EE99DE8C2E78CF0C2F753
:10003E0095F0400CE8CCF8E9CDF9EACEFAEBCFFB1F
:10004E0012032185D0F05804700320D5B3E8047054
:10005E00075002B2D502036092D5EC0460F7E4CCEF
:10006E00C0E0C398F8603B94186008400DD0E0FBE8
:10007E00020338E4FBFAC9FC8028E830E406E4C940
:10008E00FBE4CAFCE830E305E4C9CACBFCE854073C
:10009E006010F8C3E913F9EA13FAEB13FBEC13FC47
:1000AE00D8F130F52FC3E49CFCEF9BFFEE9AFEEDEA
:1000BE0099FDD0E0FBEF4E4D4C701222DB03020394
:1000CE005DEC2CFCEF33FFEE33FEED33FDED30E750
:1000DE00EB020338EF2BFFEE3AFEED39FDD0E0FBDD
:1000EE0050130BBB0003020360ED13FDEE13FEEF86
:0800FE0013FFEC13FC020338B0
:10010600EC4D6011E8497017ED33EC3304600DE4F3
:10011600FCFFFEFD22E933E8330470F802035612B1
:10012600032158046009E4CC2481500628500902B2
:10013600036028400302035DC0E0EB4A7044B980C7
:1001460006D0E0FB02034CEF4E701CBD8008EBFFAF
:10015600EAFEE9FD80EBE98DF0A4FEE5F00201EF91
:10016600E9CDF9EAFEEBFFEF89F0A4FCE5F0CE89D4
:10017600F0A42EFFE435F0CD89F0A42DFEE435F091
:100186008067EF4E7005BD80D780C3EF8BF0A4ACBF
:10019600F0EE8BF0A42CFCE435F0F8EF8AF0A42CFA
:1001A600E5F038FCE433CB8DF0A42CFCE5F03BF80D
:1001B600EE8AF0A42CFCE5F038F8E433CF89F0A4FD
:1001C6002CFCE5F038CF3400CE89F0A42FFFE5F003
:1001D6003EFEE433C98DF0A42EFEE5F039CD8AF05B
:1001E600A42FFFE5F03EFEE43DFD33D0E0FB5007D3
:1001F6000BBB000F020360EC2CFCEF33FFEE33FE6B
:06020600ED33FD02033898
:10020C00020360EC5D046005E859047003020356B8
:10021C00120321580460F6EC4860F2EC7004FDFE09
:10022C00FF22C860DB2481C85009C39860025006C5
:10023C0002035D9850CAF582E9294B4A7005AB82DE
:10024C0002034C75F0007C1A7880C3EF9BEE9AED9C
:10025C0099400DC3EF9BFFEE9AFEED99FDE842F03D
:10026C00DC23ACF0D0E0FFD0E0FED0E0FDAB822090
:10027C00E7101BEB60BAEC2CFCEF33FFEE33FEED1A
:10028C0033FD020338E803F830E705C0F075F000E1
:10029C00EF2FFFEE33FEED33FD40B830E7C280AAFE
:1002AC0075F020800E75F010800575F0087D007ECD
:1002BC00007F003392D530D503120503EC33401088
:1002CC00EF33FFEE33FEED33FDEC33FCD5F0ED22D6
:0E02DC00E5F0247EA2D513CC92E7CDCEFF2212
:1002EA00EDD2E7CD33EC3392D524814006E4FFFE0C
:1002FA00FDFC22FCE4CFCECDCC24E0501174FF806B
:10030A00EDC3CC13CCCD13CDCE13CECF13CF047007
:07031A00F030D5DE020503FF
:10032100E9D2E7C933E833F892D5EDD2E7CD33EC22
:0703310033FC5002B2D5229B
:10033800EC30E7100FBF000C0EBE00080DBD000426
:100348000BEB6014A2D5EB13FCED92E7FD2274FFD2
:10035800FCFDFEFF22E480F8A2D574FF13FC7D802B
:03036800E480EF3F
:1006E100020511E493A3F8E493A34003F68001F219
:1006F10008DFF48029E493A3F85407240CC8C3331A
:10070100C4540F4420C8834004F456800146F6DFE8
:10071100E4800B0102040810204080900A64E47E0A
:10072100019360BCA3FF543F30E509541FFEE493DD
:10073100A360010ECF54C025E060A840B8E493A3A4
:10074100FAE493A3F8E493A3C8C582C8CAC583CACF
:10075100F0A3C8C582C8CAC583CADFE9DEE780BE87
:010A7600007F
:10036B00E709F608DFFA8046E709F208DFFA803E74
:10037B0088828C83E709F0A3DFFA8032E309F60861
:10038B00DFFA8078E309F208DFFA807088828C83C9
:10039B00E309F0A3DFFA806489828A83E0A3F6087D
:1003AB00DFFA805889828A83E0A3F208DFFA804C57
:1003BB0080D280FA80C680D4806980F2803380102E
:1003CB0080A680EA809A80A880DA80E280CA803397
:1003DB0089828A83ECFAE493A3C8C582C8CCC5830F
:1003EB00CCF0A3C8C582C8CCC583CCDFE9DEE780DF
:1003FB000D89828A83E493A3F608DFF9ECFAA9F05E
:10040B00EDFB2289828A83ECFAE0A3C8C582C8CCB3
:10041B00C583CCF0A3C8C582C8CCC583CCDFEADECC
:10042B00E880DB89828A83E493A3F208DFF980CC2E
:10043B0088F0EF60010E4E60C388F0ED2402B40427
:10044B000050B9F582EB2402B4040050AF232345CE
:06045B0082239003BB7335
:10046100BB010689828A83E0225002E722BBFE0299
:09047100E32289828A83E49322CC
:10047A00F8BB010DE58229F582E5833AF583E8F0B8
:10048A00225006E92582C8F622BBFE05E92582C864
:02049A00F2224C
:10049C00EF8DF0A4A8F0CF8CF0A428CE8DF0A42E74
:0204AC00FE222E
:1004AE00BC000BBE0029EF8DF084FFADF022E4CC32
:1004BE00F875F008EF2FFFEE33FEEC33FCEE9DECFB
:1004CE00984005FCEE9DFE0FD5F0E9E4CEFD22ED41
:1004DE00F8F5F0EE8420D21CFEADF075F008EF2F8B
:1004EE00FFED33FD4007985006D5F0F222C398FD7C
:0504FE000FD5F0EA2219
:0E050300C3E49FFFE49EFEE49DFDE49CFC2209
:00000001FF
