:10053200202054656D0020204469730000000000F3
:1005420000000000000000000000000000000000A9
:0E05B500050D354310100305083543101003E3
:0F048B008F807F057E0012049AD2B77F057E0016
:10049A00D3EF9400EE940040147D727C00ED1D7041
:0D04AA00011CED4C70F7EF1F70E61E80E3A3
:0104B7002222
:0805DC00C2B412048BC2B72265
:10056F00FFEC3EFE7D641201617C007D0A12016189
:04057F00ED2430FF38
:08058300D2B412048BC2B722AE
:1004B8008B398A3A893BAB39AA3AA93B1200F960D1
:1004C8001A053BE53B7002053A14F91200F9FF12D0
:0C04D80005837F017E0012049A80DB2265
:10055200C2B6C2B77F381205DC7F0E1205DC7F06F9
:0D0562001205DC7F011205DC7F800205DC44
:10050F00E4FDFCC3ED9FEC9E50070DBD00010C8078
:10051F00F2E4FCFDC3ED9FEC9E50070DBD00010CF6
:02052F0080F258
:0105310022A7
:0B05D100EFD394004004001F80F622CE
:10039B007F641205D1C290D291C2927B007A007910
:1003AB000D753D057F301204287B007A00790875A6
:1003BB003D057F2B1204287D037F211205A47D03AD
:1003CB007F221205A4E4FD7F251205A47D147F3244
:0D03DB001205A47D077F261205A4D29022F2
:10058B00E4FEEF339293EF25E0FFD292A294E43393
:08059B004207C2920EBE08EAFD
:0105A3002235
:0C05C400C29112058BE4FF12058BD2914E
:0105D0002208
:1005A400C29112058BAC07AF0512058BD291AF0433
:0105B4002224
:06045A008B3A8A3B893C4D
:10046000C29112058BAD07E4FCECC3953D5017E437
:10047000FF12058BAB3AAA3BA93C8C82758300EF37
:0A04800012013F0C80E3D291AF059A
:01048A00224F
:060428008B3A8A3B893C7F
:10042E00C29112058BAD07E4FCECC3953D5018ABA1
:10043E003A053CE53CAA3B7002053B14F91200F963
:0B044E00FF12058B0C80E2D291AF057D
:010459002280
:0601B6008B358A36893703
:1001BC00E4F538FB7A007908753D057F2A1204288E
:1001CC00C2907D0F7F201205A4D2907F821205D1A0
:1001DC007F071205C48F20200603020305C290ABD3
:1001EC0035AA36A937753D147F6112045A7538014A
:1001FC007F801205DC7BFF7A0579321204B87F3AD6
:10020C00120583AB35AA36A937900002120112FEF3
:10021C009000031201127C00240012056FAB35AA6A
:10022C0036A937900002120112FE9000031201123F
:10023C007C002400FFEC3EFE7D0A1205757F2E1219
:10024C000583AB35AA36A937900002120112FE9035
:10025C0000031201127C002400FFEC3EFE12057A12
:10026C007FDF1205837F631205837FC01205DC7B61
:10027C00FF7A0579381204B87F3A120583AB35AA98
:10028C0036A937900001120112FD7C001200F9FE14
:10029C00E42DFFEC3EFE7C037DE81205757F2E12EB
:1002AC000583AB35AA36A937900001120112FD7CEB
:1002BC00001200F9FEE42D12056FAB35AA36A937F2
:1002CC00900001120112FD7C001200F9FEE42DFFDA
:1002DC00EC3EFE7D0A120575AB35AA36A9379000A7
:1002EC0001120112FD7C001200F9FEE42DFFEC3E20
:1002FC00FE12057A7F6D120583AD207F271205A4AF
:02030C00AF3808
:01030E0022CC
:1003E8008B128A138914C2907B007A00790D753DAF
:1003F800057F301204287B007A00790D753D057F52
:100408002A120428AB12AA13A914753D147FA0124E
:1004180004287D0E7F201205A4D2907F140205D1F6
:1004E40078217C007D007BFF7A05793E7E007F14B5
:1004F4001200D312055212039B7B007A0079211259
:0B05040001B6E4F521F522F52380EE9E
:0300000002030FE9
:0C030F00787FE4F6D8FD75813D020356AE
:10000300E709F608DFFA8046E709F208DFFA803EDF
:1000130088828C83E709F0A3DFFA8032E309F608CC
:10002300DFFA8078E309F208DFFA807088828C8334
:10003300E309F0A3DFFA806489828A83E0A3F608E8
:10004300DFFA805889828A83E0A3F208DFFA804CC2
:1000530080D280FA80C680D4806980F28033801099
:1000630080A680EA809A80A880DA80E280CA803302
:1000730089828A83ECFAE493A3C8C582C8CCC5837A
:10008300CCF0A3C8C582C8CCC583CCDFE9DEE7804A
:100093000D89828A83E493A3F608DFF9ECFAA9F0C9
:1000A300EDFB2289828A83ECFAE0A3C8C582C8CC1F
:1000B300C583CCF0A3C8C582C8CCC583CCDFEADE38
:1000C300E880DB89828A83E493A3F208DFF980CC9A
:1000D30088F0EF60010E4E60C388F0ED2402B40493
:1000E3000050B9F582EB2402B4040050AF2323453A
:0600F3008223900053730C
:1000F900BB010689828A83E0225002E722BBFE0205
:09010900E32289828A83E4932237
:10011200BB010CE58229F582E5833AF583E02250A2
:1001220006E92582F8E622BBFE06E92582F8E222EC
:0D013200E58229F582E5833AF583E4932206
:10013F00F8BB010DE58229F582E5833AF583E8F0F6
:10014F00225006E92582C8F622BBFE05E92582C8A2
:02015F00F2228A
:10016100BC000BBE0029EF8DF084FFADF022E4CC82
:10017100F875F008EF2FFFEE33FEEC33FCEE9DEC4B
:10018100984005FCEE9DFE0FD5F0E9E4CEFD22ED91
:10019100F8F5F0EE8420D21CFEADF075F008EF2FDB
:1001A100FFED33FD4007985006D5F0F222C398FDCC
:0501B1000FD5F0EA2269
:10031B000204E4E493A3F8E493A34003F68001F210
:10032B0008DFF48029E493A3F85407240CC8C333E3
:10033B00C4540F4420C8834004F456800146F6DFB2
:10034B00E4800B01020408102040809005B5E47E88
:10035B00019360BCA3FF543F30E509541FFEE493A7
:10036B00A360010ECF54C025E060A840B8E493A36E
:10037B00FAE493A3F8E493A3C8C582C8CAC583CA99
:10038B00F0A3C8C582C8CAC583CADFE9DEE780BE51
:0105C3000037
:00000001FF
