:10005800D296C2977F327E00120069D2977F327E95
:010068000097
:10006900D3EF9400EE940040147D6E7C00ED1D707A
:0D007900011CED4C70F7EF1F70E61E80E3D8
:010086002257
:10000300D296D29720A4147F057E0012006920A403
:100013000AC296120065D29612006520A50D7F05CF
:100023007E0012006920A50312005820A6147F0544
:100033007E0012006920A60AC296120065D29612AB
:10004300006520A7BF7F057E0012006920A7B512B7
:05005300005802000747
:0300000002008774
:0C008700787FE4F6D8FD758107020003C5
:00000001FF
