:100365000000000000000000000000000000000088
:100375000000000000000000000000000000000078
:08038500000000000000000070
:0E041200050D3443201001050834432010016D
:04038D007F0A7E0065
:10039100E4FDFCC3ED9FEC9E50070DBD00010C80F8
:1003A100F2E4FCFDC3ED9FEC9E50070DBD00010C76
:0203B10080F2D8
:0103B3002227
:0B042E00EFD394004004001F80F62272
:100280007F6412042EC290D291C2927B007A0079D0
:100290000D7551057F301203027B007A00790875D5
:1002A00051057F2B1203027D017F211203F17D0195
:1002B0007F221203F1E4FD7F251203F17D147F31CB
:0A02C0001203F17D077F260203F10F
:1003D800E4FEEF339293EF25E0FFD292A294E43348
:0803E8004207C2920EBE08EAB2
:0103F00022EA
:0C042100C2911203D8E4FF1203D8D2915C
:01042D0022AC
:1003F100C2911203D8AC07AF051203D8D291AF0452
:0104010022D8
:060334008B4C8A4D894E3E
:10033A00C2911203D8AD07E4FCECC3954F5017E401
:10034A00FF1203D8AB4CAA4DA94E8C82758300EFDD
:0A035A001201120C80E3D291AF05EE
:010364002276
:060302008B4E8A4F89506A
:10030800C2911203D8AD07E4FCECC395515018AB69
:100318004E0550E550AA4F7002054F14F91200F926
:0B032800FF1203D80C80E2D291AF0559
:0103330022A7
:10040200C2907D0F7F201203F1D2907F8202042ED0
:1003B400E4F54A7F071204218F2030060DC29075A0
:1003C4004F147F61120334754A01AD207F27120355
:0303D400F1AF4A3C
:0103D7002203
:0602CA007B007A0079229E
:1002D0008B4A8A4B894CC2907B007A00790D75510C
:1002E000057F2A120302AB4AAA4BA94C7551147F11
:1002F000A01203027D0E7F201203F1D2907F0A022A
:02030000042EC9
:10013400E4F52178227C00FD7BFF7A037965FE7F5C
:10014400141200D378367C007D007BFF7A03797922
:100154007E007F141200D3120280C297C2967F647D
:100164007E00120391D297D2967523017524011251
:1001740002CA7FE87E0312039120A41512038D2086
:10018400A40675230175210120A4FD12038D20A46A
:10019400FD20A51512038D20A506752401752101E6
:1001A40020A5FD12038D20A5FDE521B40111120245
:1001B400CAE4F523F524F5217FE87E0312039112A6
:1001C40004027B007A0079361203B4E5377004E543
:1001D400386015E537B40102B297E538B40102B2CC
:1001E400967FE87E03120391E4F537F53802017D2A
:030000000201F406
:0C01F400787FE4F6D8FD75815102023BD3
:10000300E709F608DFFA8046E709F208DFFA803EDF
:1000130088828C83E709F0A3DFFA8032E309F608CC
:10002300DFFA8078E309F208DFFA807088828C8334
:10003300E309F0A3DFFA806489828A83E0A3F608E8
:10004300DFFA805889828A83E0A3F208DFFA804CC2
:1000530080D280FA80C680D4806980F28033801099
:1000630080A680EA809A80A880DA80E280CA803302
:1000730089828A83ECFAE493A3C8C582C8CCC5837A
:10008300CCF0A3C8C582C8CCC583CCDFE9DEE7804A
:100093000D89828A83E493A3F608DFF9ECFAA9F0C9
:1000A300EDFB2289828A83ECFAE0A3C8C582C8CC1F
:1000B300C583CCF0A3C8C582C8CCC583CCDFEADE38
:1000C300E880DB89828A83E493A3F208DFF980CC9A
:1000D30088F0EF60010E4E60C388F0ED2402B40493
:1000E3000050B9F582EB2402B4040050AF2323453A
:0600F3008223900053730C
:1000F900BB010689828A83E0225002E722BBFE0205
:09010900E32289828A83E4932237
:10011200F8BB010DE58229F582E5833AF583E8F023
:10012200225006E92582C8F622BBFE05E92582C8CF
:02013200F222B7
:10020000020134E493A3F8E493A34003F68001F2DF
:1002100008DFF48029E493A3F85407240CC8C333FF
:10022000C4540F4420C8834004F456800146F6DFCE
:10023000E4800B0102040810204080900412E47E48
:10024000019360BCA3FF543F30E509541FFEE493C3
:10025000A360010ECF54C025E060A840B8E493A38A
:10026000FAE493A3F8E493A3C8C582C8CAC583CAB5
:10027000F0A3C8C582C8CAC583CADFE9DEE780BE6D
:0104200000DB
:00000001FF
