:030000000201D129
:0C01D100787FE4F6D8FD75815502021815
:1002A700202020202048756D002020202020546524
:1002B7006D000000000000000000000000000000CA
:1002C7000000000000000000000000000000000027
:1002D7000000000000000000000000000000000017
:0602E70000000000000011
:0E053E00050D3543101003050835431010035A
:1004CC00E4FDFCC3ED9FEC9E50070DBD00010C80BC
:1004DC00F2E4FCFDC3ED9FEC9E50070DBD00010C3A
:0204EC0080F29C
:0104EE0022EB
:0B055A00EFD394004004001F80F62245
:10025D007F6412055AC290D291C2927B007A0079C6
:10026D000D753D057F301203707B007A007908759E
:10027D003D057F2B1203707D037F2112051D7D032C
:10028D007F2212051DE4FD7F2512051D7D147F3291
:0A029D0012051D7D077F2602051DD6
:1004EF00E4FEEF339293EF25E0FFD292A294E43330
:0804FF004207C2920EBE08EA9A
:0105070022D1
:0C054D00C2911204EFE4FF1204EFD291FF
:01055900227F
:10051D00C2911204EFAC07AF051204EFD291AF04F4
:01052D0022AB
:0603A2008B158A16891775
:1003A800C2911204EFAD07E4FCECC395185017E4B2
:1003B800FF1204EFAB15AA16A9178C82758300EFFC
:0A03C8001201120C80E3D291AF0580
:0103D2002208
:060370008B3A8A3B893C38
:10037600C2911204EFAD07E4FCECC3953D5018ABF7
:100386003A053CE53CAA3B7002053B14F91200F91C
:0B039600FF1204EF0C80E2D291AF05D3
:0103A1002239
:10052E00C2907D0F7F2012051DD2907F8202055A48
:1004A800E4F5197F0712054D8F2030060DC29075AF
:1004B80018147F611203A2751901AD207F27120558
:0304C8001DAF194C
:0104CB00220E
:100330008B368A378938C2907B007A00790D753DFB
:10034000057F301203707B007A00790D753D057FC3
:100350002A120370AB36AA37A938753D147FA01254
:1003600003707D0E7F2012051DD2907F1402055A66
:0F03D3008F807F057E001203E2D2B77F057E0088
:1003E200D3EF9400EE940040147D727C00ED1D70FA
:0D03F200011CED4C70F7EF1F70E61E80E35C
:0103FF0022DB
:08056500C2B41203D3C2B72295
:0D05080075F00A8475F00A84E5F02430FFD8
:08051500D2B41203D3C2B722D5
:100400008B368A378938AB36AA37A9381200F9609B
:100410001A0538E5387002053714F91200F9FF1291
:0C04200005157F017E001203E280DB2244
:1002ED0078367C007D007BFF7A0279B97E007F1025
:1002FD001200D378467C007D007BFF7A0279C97E9F
:10030D00007F101200D3C2B6C2B77F381205657FC9
:10031D000E1205657F061205657F011205657F804A
:03032D0002056561
:10045800C2A37F137E001203E2D2A3E4FF0FBF0AF8
:10046800FCE4FF0FBF0CFCA2A39208E4FF0FBF0B34
:09047800FCE4FF0FBF18FCA20810
:010481002258
:10048200E4FF20A3FDE4FE30A3FDEF25E0FFE4FD41
:1004920030A3030D80FAEDC3940A50028003430790
:0504A200010EBE08E29E
:0104A7002232
:10042C0012045840261204828F1312048212048282
:10043C008F12120482120482E4FF0FBF11FCD2A3AC
:0B044C00C2967F017E001203E2D296F0
:010457002282
:1001340078227C007D007BFF7A0279D97E007F14CF
:100144001200D312025DE4F513F5127FE87E031268
:1001540003E21202ED12042C7F801205657BFF7A04
:100164000279A71204007F3A120515E51312050857
:10017400E51312050C7FDF1205157F251205157F87
:10018400C01205657BFF7A0279B01204007F3A122F
:100194000515E512120508E51212050C7F63120518
:1001A400158513238512247B007A007922120330EB
:1001B400E4F523F5247FD07E071203E27F071205BE
:0D01C4004D8F20AD207F2712051D0201592F
:1001DD00020134E493A3F8E493A34003F68001F203
:1001ED0008DFF48029E493A3F85407240CC8C33323
:1001FD00C4540F4420C8834004F456800146F6DFF2
:10020D00E4800B010204081020408090053EE47E3E
:10021D00019360BCA3FF543F30E509541FFEE493E6
:10022D00A360010ECF54C025E060A840B8E493A3AD
:10023D00FAE493A3F8E493A3C8C582C8CAC583CAD8
:10024D00F0A3C8C582C8CAC583CADFE9DEE780BE90
:01054C0000AE
:10000300E709F608DFFA8046E709F208DFFA803EDF
:1000130088828C83E709F0A3DFFA8032E309F608CC
:10002300DFFA8078E309F208DFFA807088828C8334
:10003300E309F0A3DFFA806489828A83E0A3F608E8
:10004300DFFA805889828A83E0A3F208DFFA804CC2
:1000530080D280FA80C680D4806980F28033801099
:1000630080A680EA809A80A880DA80E280CA803302
:1000730089828A83ECFAE493A3C8C582C8CCC5837A
:10008300CCF0A3C8C582C8CCC583CCDFE9DEE7804A
:100093000D89828A83E493A3F608DFF9ECFAA9F0C9
:1000A300EDFB2289828A83ECFAE0A3C8C582C8CC1F
:1000B300C583CCF0A3C8C582C8CCC583CCDFEADE38
:1000C300E880DB89828A83E493A3F208DFF980CC9A
:1000D30088F0EF60010E4E60C388F0ED2402B40493
:1000E3000050B9F582EB2402B4040050AF2323453A
:0600F3008223900053730C
:1000F900BB010689828A83E0225002E722BBFE0205
:09010900E32289828A83E4932237
:10011200F8BB010DE58229F582E5833AF583E8F023
:10012200225006E92582C8F622BBFE05E92582C8CF
:02013200F222B7
:00000001FF
