:10031000446174653A20323031312D31312D323221
:1003200000202054696D653A2031353A35393A3329
:0203300030009B
:0F02E3008F807F057E001202F2D2B77F057E006A
:1002F200D3EF9400EE940040147D6E7C00ED1D70EF
:0D030200011CED4C70F7EF1F70E61E80E34C
:01030F0022CB
:09037300AD0B7F0E12034D7FCE8D
:08037C00C2B41202E3C2B72271
:0F033200FF12037CEB2430FF120341EA2430FF5B
:08034100D2B41202E3C2B7229C
:04034900AD0E7F0B6B
:10034D00ED75F00A84FBED75F00A84AAF0EF24C078
:03035D0002033266
:10036000ED75F00A84FBED75F00A84AAF0EF2480A5
:0303700002033253
:1001FE00750A0B75080B750C16750D0F750E3B7584
:10020E000B1EC2B6C2B77F3812037C7F0E12037C60
:10021E007F0612037C7F0112037C7F8012037CE435
:10022E00F50FE50F90031093FF1203417F147E002C
:10023E001202F2050FE50FC3941040E67FC01203C1
:10024E007CE4F50FE50F90032193FF1203417F1419
:10025E007E001202F2050FE50FC3941040E6758979
:0E026E0001758C3C758AB0D2AFD2A9D28C2219
:10000E0020A4791202EE20A4730511E511700205E9
:10001E001030A4FDE51164014510700CC28C7FCE2A
:10002E0012037C7F0F12037CE511640245107005EC
:10003E007FCB12037CE5116403451070057FC81257
:10004E00037CE5116404451070057F8E12037CE578
:10005E00116405451070057F8B12037CE511640653
:10006E00451070057F8812037CE5116407451070FA
:10007E000BF510F5117F0C12037CD28CE511451097
:10008E00700302014C30A50302014C1202EE30A5A2
:10009E000302014C30A5FDE51164014510700D05FC
:1000AE000BE50BB43C03E4F50B120373E51164028C
:1000BE0045107012050EE50EB43C03E4F50E120366
:1000CE00497FCB12037CE511640345107016050DB4
:1000DE00E50DB41803E4F50DAD0D7F0812034D7F49
:1000EE00C812037CE511640445107016050CE50C6E
:1000FE00B42003E4F50CAD0C7F0E1203607F8E125C
:10010E00037CE5116405451070160508E508B40D6D
:10011E0003E4F508AD087F0B1203607F8B12037C9E
:10012E00E511640645107016050AE50AB46403E489
:10013E00F50AAD0A7F081203607F8812037C30A691
:10014E00030201FD1202EE30A6030201FD30A6FDF0
:10015E00E51164014510700D150BE50BB4FF037529
:10016E000B3B120373E511640245107012150EE578
:10017E000EB4FF03750E3B1203497FCB12037CE5D1
:10018E0011640345107016150DE50DB4FF03750DC2
:10019E0017AD0D7F0812034D7FC812037CE5116465
:1001AE000445107012D50C03750C1FAD0C7F0E128A
:1001BE0003607F8F12037CE511640545107012D524
:1001CE00080375080CAD087F0B1203607F8B1203BA
:1001DE007CE511640645107016150AE50AB4FF0396
:1001EE00750A63AD0A7F081203607F8812037C22B2
:080003001201FE12000E80FB49
:03000B0002027C72
:10027C00C0E0C0F0C0D075D000C002C003C004C044
:10028C0005C006C007758C3C758AB00509E5096484
:10029C00127031F509050BE50B643C7020F50B056C
:1002AC000EE50EB43C14750E00050DE50DB41803E7
:1002BC00750D00AD0D7F0812034D120349AD0B7F78
:1002CC000E12034DD007D006D005D004D003D002B7
:0702DC00D0D0D0F0D0E032D9
:0300000002038474
:0C038400787FE4F6D8FD758111020003BB
:00000001FF
