:1004AC0074656D7065726174757265000000000092
:1004BC000000000000000000000000000000000030
:0E052900050D3543101003050835431010036F
:0F0407008F807F057E00120416D2B77F057E001E
:10041600D3EF9400EE940040147D727C00ED1D70C5
:0D042600011CED4C70F7EF1F70E61E80E327
:0104330022A6
:08055000C2B4120407C2B72275
:0E0502001201617C007D0A120161ED2430FFC0
:08051000D2B4120407C2B722A5
:100434008B398A3A893BAB39AA3AA93B1200F96055
:100444001A053BE53B7002053A14F91200F9FF1254
:0C04540005107F017E0012041680DB22E0
:1004CC00C2B6C2B77F381205507F0E1205507F0698
:0D04DC001205507F011205507F800205506F
:10048900E4FDFCC3ED9FEC9E50070DBD00010C80FF
:10049900F2E4FCFDC3ED9FEC9E50070DBD00010C7D
:0204A90080F2DF
:0104AB00222E
:0B054500EFD394004004001F80F6225A
:100317007F64120545C290D291C2927B007A007920
:100327000D753D057F301203A47B007A00790875AF
:100337003D057F2B1203A47D037F211205187D0342
:100347007F22120518E4FD7F251205187D147F32E0
:0D0357001205187D077F26120518D290228E
:1004E900E4FEEF339293EF25E0FFD292A294E43336
:0804F9004207C2920EBE08EAA0
:0105010022D7
:0C053800C2911204E9E4FF1204E9D29120
:010544002294
:10051800C2911204E9AC07AF051204E9D291AF0405
:0105280022B0
:0603D6008B3A8A3B893CD2
:1003DC00C2911204E9AD07E4FCECC3953D5017E45F
:1003EC00FF1204E9AB3AAA3BA93C8C82758300EF5F
:0A03FC0012013F0C80E3D291AF051F
:0104060022D3
:0603A4008B3A8A3B893C04
:1003AA00C2911204E9AD07E4FCECC3953D5018ABC9
:1003BA003A053CE53CAA3B7002053B14F91200F9E8
:0B03CA00FF1204E90C80E2D291AF05A5
:0103D5002205
:0601B6008B358A36893703
:1001BC00E4F538FB7A007908753D057F2A1203A413
:1001CC00C2907D0F7F20120518D2907F82120545B8
:1001DC007F071205388F20200603020281C290ABE4
:1001EC0035AA36A937753D147F611203D6753801CF
:1001FC007F821205507BFF7A0479AC1204347F3A6B
:10020C001205107FC4120550AB35AA36A9379000E1
:10021C0001120112FE9000021201127C002400FF58
:10022C00EC3EFE7D64120502AB35AA36A937900070
:10023C0001120112FE9000021201127C002400FF38
:10024C00EC3EFE7D0A1205027F2E120510AB35AA7C
:10025C0036A937900001120112FE90000212011211
:10026C007C002400FFEC3EFE1205077FDF12051018
:0E027C007F63120510AD207F27120518AF38E2
:01028A002251
:100364008B138A148915C2907B007A00790D753D30
:10037400057F301203A47B007A00790D753D057F5B
:100384002A1203A4AB13AA14A915753D147FA01255
:1003940003A47D0E7F20120518D2907F1402054518
:1004600078217C007D007BFF7A0479B87E007F14C0
:100470001200D31204CC1203177B007A00792112E8
:0904800001B6E4F522F52380F039
:0300000002028B6E
:0C028B00787FE4F6D8FD75813D0202D2B8
:10000300E709F608DFFA8046E709F208DFFA803EDF
:1000130088828C83E709F0A3DFFA8032E309F608CC
:10002300DFFA8078E309F208DFFA807088828C8334
:10003300E309F0A3DFFA806489828A83E0A3F608E8
:10004300DFFA805889828A83E0A3F208DFFA804CC2
:1000530080D280FA80C680D4806980F28033801099
:1000630080A680EA809A80A880DA80E280CA803302
:1000730089828A83ECFAE493A3C8C582C8CCC5837A
:10008300CCF0A3C8C582C8CCC583CCDFE9DEE7804A
:100093000D89828A83E493A3F608DFF9ECFAA9F0C9
:1000A300EDFB2289828A83ECFAE0A3C8C582C8CC1F
:1000B300C583CCF0A3C8C582C8CCC583CCDFEADE38
:1000C300E880DB89828A83E493A3F208DFF980CC9A
:1000D30088F0EF60010E4E60C388F0ED2402B40493
:1000E3000050B9F582EB2402B4040050AF2323453A
:0600F3008223900053730C
:1000F900BB010689828A83E0225002E722BBFE0205
:09010900E32289828A83E4932237
:10011200BB010CE58229F582E5833AF583E02250A2
:1001220006E92582F8E622BBFE06E92582F8E222EC
:0D013200E58229F582E5833AF583E4932206
:10013F00F8BB010DE58229F582E5833AF583E8F0F6
:10014F00225006E92582C8F622BBFE05E92582C8A2
:02015F00F2228A
:10016100BC000BBE0029EF8DF084FFADF022E4CC82
:10017100F875F008EF2FFFEE33FEEC33FCEE9DEC4B
:10018100984005FCEE9DFE0FD5F0E9E4CEFD22ED91
:10019100F8F5F0EE8420D21CFEADF075F008EF2FDB
:1001A100FFED33FD4007985006D5F0F222C398FDCC
:0501B1000FD5F0EA2269
:10029700020460E493A3F8E493A34003F68001F219
:1002A70008DFF48029E493A3F85407240CC8C33368
:1002B700C4540F4420C8834004F456800146F6DF37
:1002C700E4800B0102040810204080900529E47E99
:1002D700019360BCA3FF543F30E509541FFEE4932C
:1002E700A360010ECF54C025E060A840B8E493A3F3
:1002F700FAE493A3F8E493A3C8C582C8CAC583CA1E
:10030700F0A3C8C582C8CAC583CADFE9DEE780BED5
:0105370000C3
:00000001FF
